{
  "_format": "hh-sol-artifact-1",
  "contractName": "LottoHelper",
  "sourceName": "contracts/TestHelpers/LottoHelpers.sol",
  "abi": [
    {
      "inputs": [],
      "stateMutability": "nonpayable",
      "type": "constructor"
    },
    {
      "anonymous": false,
      "inputs": [
        {
          "indexed": false,
          "internalType": "bool",
          "name": "winnerSelected",
          "type": "bool"
        },
        {
          "indexed": false,
          "internalType": "bytes32",
          "name": "winningTicket",
          "type": "bytes32"
        }
      ],
      "name": "newDraw",
      "type": "event"
    },
    {
      "anonymous": false,
      "inputs": [
        {
          "indexed": false,
          "internalType": "address",
          "name": "entrant",
          "type": "address"
        },
        {
          "indexed": false,
          "internalType": "bytes32",
          "name": "ticketID",
          "type": "bytes32"
        },
        {
          "indexed": false,
          "internalType": "uint256",
          "name": "totalPot",
          "type": "uint256"
        }
      ],
      "name": "newEntry",
      "type": "event"
    },
    {
      "anonymous": false,
      "inputs": [
        {
          "indexed": false,
          "internalType": "address",
          "name": "user",
          "type": "address"
        },
        {
          "indexed": false,
          "internalType": "uint256",
          "name": "amount",
          "type": "uint256"
        }
      ],
      "name": "newPayment",
      "type": "event"
    },
    {
      "anonymous": false,
      "inputs": [
        {
          "indexed": false,
          "internalType": "uint256",
          "name": "lottoNumber",
          "type": "uint256"
        }
      ],
      "name": "newRound",
      "type": "event"
    },
    {
      "inputs": [],
      "name": "checkRandomness",
      "outputs": [
        {
          "internalType": "uint256[5]",
          "name": "",
          "type": "uint256[5]"
        }
      ],
      "stateMutability": "view",
      "type": "function"
    },
    {
      "inputs": [
        {
          "internalType": "uint256",
          "name": "index",
          "type": "uint256"
        }
      ],
      "name": "checkWinner",
      "outputs": [
        {
          "internalType": "bool",
          "name": "",
          "type": "bool"
        }
      ],
      "stateMutability": "view",
      "type": "function"
    },
    {
      "inputs": [],
      "name": "currentDraw",
      "outputs": [
        {
          "internalType": "uint256",
          "name": "",
          "type": "uint256"
        }
      ],
      "stateMutability": "view",
      "type": "function"
    },
    {
      "inputs": [],
      "name": "currentLotto",
      "outputs": [
        {
          "internalType": "uint256",
          "name": "",
          "type": "uint256"
        }
      ],
      "stateMutability": "view",
      "type": "function"
    },
    {
      "inputs": [
        {
          "internalType": "address",
          "name": "",
          "type": "address"
        }
      ],
      "name": "debtToUser",
      "outputs": [
        {
          "internalType": "uint256",
          "name": "",
          "type": "uint256"
        }
      ],
      "stateMutability": "view",
      "type": "function"
    },
    {
      "inputs": [],
      "name": "didSomeoneWin",
      "outputs": [
        {
          "internalType": "bool",
          "name": "",
          "type": "bool"
        }
      ],
      "stateMutability": "view",
      "type": "function"
    },
    {
      "inputs": [],
      "name": "draw",
      "outputs": [
        {
          "internalType": "bytes32",
          "name": "",
          "type": "bytes32"
        }
      ],
      "stateMutability": "nonpayable",
      "type": "function"
    },
    {
      "inputs": [],
      "name": "drawFrequency",
      "outputs": [
        {
          "internalType": "uint256",
          "name": "",
          "type": "uint256"
        }
      ],
      "stateMutability": "view",
      "type": "function"
    },
    {
      "inputs": [],
      "name": "enter",
      "outputs": [
        {
          "internalType": "bytes32",
          "name": "",
          "type": "bytes32"
        }
      ],
      "stateMutability": "payable",
      "type": "function"
    },
    {
      "inputs": [],
      "name": "enterAndLog",
      "outputs": [
        {
          "internalType": "bool",
          "name": "",
          "type": "bool"
        }
      ],
      "stateMutability": "payable",
      "type": "function"
    },
    {
      "inputs": [],
      "name": "ethDecimals",
      "outputs": [
        {
          "internalType": "uint256",
          "name": "",
          "type": "uint256"
        }
      ],
      "stateMutability": "view",
      "type": "function"
    },
    {
      "inputs": [],
      "name": "fee",
      "outputs": [
        {
          "internalType": "uint256",
          "name": "",
          "type": "uint256"
        }
      ],
      "stateMutability": "view",
      "type": "function"
    },
    {
      "inputs": [],
      "name": "feeRecipient",
      "outputs": [
        {
          "internalType": "address",
          "name": "",
          "type": "address"
        }
      ],
      "stateMutability": "view",
      "type": "function"
    },
    {
      "inputs": [],
      "name": "getPaid",
      "outputs": [
        {
          "internalType": "bool",
          "name": "",
          "type": "bool"
        }
      ],
      "stateMutability": "nonpayable",
      "type": "function"
    },
    {
      "inputs": [
        {
          "internalType": "uint256",
          "name": "",
          "type": "uint256"
        }
      ],
      "name": "logArray",
      "outputs": [
        {
          "internalType": "bytes32",
          "name": "",
          "type": "bytes32"
        }
      ],
      "stateMutability": "view",
      "type": "function"
    },
    {
      "inputs": [],
      "name": "modulus",
      "outputs": [
        {
          "internalType": "uint256",
          "name": "",
          "type": "uint256"
        }
      ],
      "stateMutability": "view",
      "type": "function"
    },
    {
      "inputs": [],
      "name": "name",
      "outputs": [
        {
          "internalType": "string",
          "name": "",
          "type": "string"
        }
      ],
      "stateMutability": "view",
      "type": "function"
    },
    {
      "inputs": [],
      "name": "readyToDraw",
      "outputs": [
        {
          "internalType": "bool",
          "name": "",
          "type": "bool"
        }
      ],
      "stateMutability": "view",
      "type": "function"
    },
    {
      "inputs": [],
      "name": "ticketCounter",
      "outputs": [
        {
          "internalType": "uint256",
          "name": "",
          "type": "uint256"
        }
      ],
      "stateMutability": "view",
      "type": "function"
    },
    {
      "inputs": [],
      "name": "ticketPrice",
      "outputs": [
        {
          "internalType": "uint256",
          "name": "",
          "type": "uint256"
        }
      ],
      "stateMutability": "view",
      "type": "function"
    },
    {
      "inputs": [
        {
          "internalType": "bytes32",
          "name": "",
          "type": "bytes32"
        }
      ],
      "name": "tickets",
      "outputs": [
        {
          "internalType": "uint256",
          "name": "ticketNumber",
          "type": "uint256"
        }
      ],
      "stateMutability": "view",
      "type": "function"
    },
    {
      "inputs": [
        {
          "internalType": "uint256",
          "name": "",
          "type": "uint256"
        },
        {
          "internalType": "address",
          "name": "",
          "type": "address"
        },
        {
          "internalType": "uint256",
          "name": "",
          "type": "uint256"
        }
      ],
      "name": "userTickets",
      "outputs": [
        {
          "internalType": "bytes32",
          "name": "",
          "type": "bytes32"
        }
      ],
      "stateMutability": "view",
      "type": "function"
    },
    {
      "inputs": [],
      "name": "viewCurrentDraw",
      "outputs": [
        {
          "internalType": "uint256",
          "name": "",
          "type": "uint256"
        }
      ],
      "stateMutability": "view",
      "type": "function"
    },
    {
      "inputs": [],
      "name": "viewFinished",
      "outputs": [
        {
          "internalType": "bool",
          "name": "",
          "type": "bool"
        }
      ],
      "stateMutability": "view",
      "type": "function"
    },
    {
      "inputs": [],
      "name": "viewLast",
      "outputs": [
        {
          "internalType": "uint256",
          "name": "",
          "type": "uint256"
        }
      ],
      "stateMutability": "view",
      "type": "function"
    },
    {
      "inputs": [
        {
          "internalType": "uint256",
          "name": "index",
          "type": "uint256"
        }
      ],
      "name": "viewLogArray",
      "outputs": [
        {
          "internalType": "bytes32",
          "name": "",
          "type": "bytes32"
        }
      ],
      "stateMutability": "view",
      "type": "function"
    },
    {
      "inputs": [
        {
          "internalType": "uint256",
          "name": "lottoNumber",
          "type": "uint256"
        }
      ],
      "name": "viewLotto",
      "outputs": [
        {
          "components": [
            {
              "internalType": "uint256",
              "name": "startTime",
              "type": "uint256"
            },
            {
              "internalType": "uint256",
              "name": "lastDraw",
              "type": "uint256"
            },
            {
              "internalType": "uint256",
              "name": "totalPot",
              "type": "uint256"
            },
            {
              "internalType": "bytes32",
              "name": "winningTicket",
              "type": "bytes32"
            },
            {
              "internalType": "bool",
              "name": "finished",
              "type": "bool"
            }
          ],
          "internalType": "struct Lottery",
          "name": "",
          "type": "tuple"
        }
      ],
      "stateMutability": "view",
      "type": "function"
    },
    {
      "inputs": [],
      "name": "viewLottoNumber",
      "outputs": [
        {
          "internalType": "uint256",
          "name": "",
          "type": "uint256"
        }
      ],
      "stateMutability": "view",
      "type": "function"
    },
    {
      "inputs": [],
      "name": "viewOdds",
      "outputs": [
        {
          "internalType": "uint256",
          "name": "",
          "type": "uint256"
        }
      ],
      "stateMutability": "view",
      "type": "function"
    },
    {
      "inputs": [],
      "name": "viewPot",
      "outputs": [
        {
          "internalType": "uint256",
          "name": "",
          "type": "uint256"
        }
      ],
      "stateMutability": "view",
      "type": "function"
    },
    {
      "inputs": [],
      "name": "viewStart",
      "outputs": [
        {
          "internalType": "uint256",
          "name": "",
          "type": "uint256"
        }
      ],
      "stateMutability": "view",
      "type": "function"
    },
    {
      "inputs": [],
      "name": "viewTicketCount",
      "outputs": [
        {
          "internalType": "uint256",
          "name": "",
          "type": "uint256"
        }
      ],
      "stateMutability": "view",
      "type": "function"
    },
    {
      "inputs": [
        {
          "internalType": "bytes32",
          "name": "_ticketID",
          "type": "bytes32"
        }
      ],
      "name": "viewTicketHolders",
      "outputs": [
        {
          "internalType": "address[]",
          "name": "",
          "type": "address[]"
        }
      ],
      "stateMutability": "view",
      "type": "function"
    },
    {
      "inputs": [
        {
          "internalType": "bytes32",
          "name": "_ticketID",
          "type": "bytes32"
        }
      ],
      "name": "viewTicketNumber",
      "outputs": [
        {
          "internalType": "uint256",
          "name": "",
          "type": "uint256"
        }
      ],
      "stateMutability": "view",
      "type": "function"
    },
    {
      "inputs": [
        {
          "internalType": "uint256",
          "name": "lottoNumber",
          "type": "uint256"
        }
      ],
      "name": "viewTicketsByLotto",
      "outputs": [
        {
          "internalType": "bytes32[]",
          "name": "",
          "type": "bytes32[]"
        }
      ],
      "stateMutability": "view",
      "type": "function"
    },
    {
      "inputs": [],
      "name": "viewWinner",
      "outputs": [
        {
          "internalType": "bytes32",
          "name": "",
          "type": "bytes32"
        }
      ],
      "stateMutability": "view",
      "type": "function"
    },
    {
      "inputs": [],
      "name": "viewWinnings",
      "outputs": [
        {
          "internalType": "uint256",
          "name": "",
          "type": "uint256"
        }
      ],
      "stateMutability": "view",
      "type": "function"
    },
    {
      "inputs": [
        {
          "internalType": "address",
          "name": "addr",
          "type": "address"
        }
      ],
      "name": "viewWinningsByAddress",
      "outputs": [
        {
          "internalType": "uint256",
          "name": "",
          "type": "uint256"
        }
      ],
      "stateMutability": "view",
      "type": "function"
    }
  ],
  "bytecode": "0x60e06040526001600b553480156200001657600080fd5b506000670de0b6b3a76400006040518060400160405280600e81526020017f46616e746f6d204c6f747465727900000000000000000000000000000000000081525073f39fd6e51aad88f6f4ce6ab8827279cfffb92266600a600160008190555084608081815250508360a0818152505082600190805190602001906200009f9291906200028b565b5081600260006101000a81548173ffffffffffffffffffffffffffffffffffffffff021916908373ffffffffffffffffffffffffffffffffffffffff1602179055508060c08181525050620000f96200010560201b60201c565b505050505050620004f0565b60008060035411156200017b5760066000600354815260200190815260200160002060040160009054906101000a900460ff166200017a576040517f08c379a00000000000000000000000000000000000000000000000000000000081526004016200017190620003b4565b60405180910390fd5b5b60036000815480929190620001909062000444565b91905055506040518060a00160405280620001b06200028360201b60201c565b8152602001620001c56200028360201b60201c565b8152602001600081526020016000801b8152602001600015158152506006600060035481526020019081526020016000206000820151816000015560208201518160010155604082015181600201556060820151816003015560808201518160040160006101000a81548160ff0219169083151502179055509050507fa35bd591310404f547e67d0f261a54d0a2a7606bf1695c5e9134f4259805eb7c600354604051620002749190620003d6565b60405180910390a16001905090565b600042905090565b82805462000299906200040e565b90600052602060002090601f016020900481019282620002bd576000855562000309565b82601f10620002d857805160ff191683800117855562000309565b8280016001018555821562000309579182015b8281111562000308578251825591602001919060010190620002eb565b5b5090506200031891906200031c565b5090565b5b80821115620003375760008160009055506001016200031d565b5090565b60006200034a602183620003f3565b91507f70726576696f7573206c6f747465727920686173206e6f742066696e6973686560008301527f64000000000000000000000000000000000000000000000000000000000000006020830152604082019050919050565b620003ae8162000404565b82525050565b60006020820190508181036000830152620003cf816200033b565b9050919050565b6000602082019050620003ed6000830184620003a3565b92915050565b600082825260208201905092915050565b6000819050919050565b600060028204905060018216806200042757607f821691505b602082108114156200043e576200043d620004c1565b5b50919050565b6000620004518262000404565b91507fffffffffffffffffffffffffffffffffffffffffffffffffffffffffffffffff82141562000487576200048662000492565b5b600182019050919050565b7f4e487b7100000000000000000000000000000000000000000000000000000000600052601160045260246000fd5b7f4e487b7100000000000000000000000000000000000000000000000000000000600052602260045260246000fd5b60805160a05160c051612cda6200053c60003960008181610bfa015281816116e00152611ba7015260008181610bd4015261146c015260008181610e820152610ef50152612cda6000f3fe6080604052600436106102255760003560e01c8063a5a4054411610123578063dccd1ae1116100ab578063e97dcb621161006f578063e97dcb6214610869578063ebec936214610887578063f04bb87f146108c4578063f5268d37146108e2578063ff4b04001461090d57610225565b8063dccd1ae11461075c578063dd325f2514610799578063ddca3f43146107c4578063df0dd0d5146107ef578063e56d71bc1461082c57610225565b8063b85d4be6116100f2578063b85d4be614610673578063be1f2cfd1461069e578063c932a7f7146106c9578063cd15cf6114610706578063cf41d6f81461073157610225565b8063a5a40544146105a3578063af38c810146105ce578063af950905146105f9578063b858bb651461063657610225565b806355e9fa4f116101b1578063893ff4ee11610175578063893ff4ee146104ba5780638c4d59d0146104f757806397ba287c146105225780639ad572f51461054d578063a1dd2ac11461057857610225565b806355e9fa4f146103bf5780636da7b0d1146103fc578063841fd8fd1461042757806386ae228f14610452578063876879521461048f57610225565b806318854939116101f857806318854939146102d657806330bd8d6914610313578063392e24031461033e57806345ea375f14610369578063469048401461039457610225565b806306fdde031461022a5780630eecae21146102555780631209b1f614610280578063154a7980146102ab575b600080fd5b34801561023657600080fd5b5061023f610938565b60405161024c919061277e565b60405180910390f35b34801561026157600080fd5b5061026a6109c6565b6040516102779190612763565b60405180910390f35b34801561028c57600080fd5b50610295610bd2565b6040516102a2919061289b565b60405180910390f35b3480156102b757600080fd5b506102c0610bf6565b6040516102cd919061289b565b60405180910390f35b3480156102e257600080fd5b506102fd60048036038101906102f891906120ad565b610c2a565b60405161030a919061271f565b60405180910390f35b34801561031f57600080fd5b50610328610c60565b604051610335919061289b565b60405180910390f35b34801561034a57600080fd5b50610353610c6c565b6040516103609190612763565b60405180910390f35b34801561037557600080fd5b5061037e610c98565b60405161038b919061289b565b60405180910390f35b3480156103a057600080fd5b506103a9610cb8565b6040516103b69190612645565b60405180910390f35b3480156103cb57600080fd5b506103e660048036038101906103e191906120ad565b610cde565b6040516103f391906126e2565b60405180910390f35b34801561040857600080fd5b50610411610d8d565b60405161041e919061289b565b60405180910390f35b34801561043357600080fd5b5061043c610d97565b6040516104499190612704565b60405180910390f35b34801561045e57600080fd5b5061047960048036038101906104749190612084565b610de7565b604051610486919061289b565b60405180910390f35b34801561049b57600080fd5b506104a4610e07565b6040516104b1919061289b565b60405180910390f35b3480156104c657600080fd5b506104e160048036038101906104dc91906120ad565b610e55565b6040516104ee9190612763565b60405180910390f35b34801561050357600080fd5b5061050c610e72565b604051610519919061289b565b60405180910390f35b34801561052e57600080fd5b50610537610e78565b604051610544919061289b565b60405180910390f35b34801561055957600080fd5b50610562610e7e565b60405161056f919061271f565b60405180910390f35b34801561058457600080fd5b5061058d610ed3565b60405161059a919061289b565b60405180910390f35b3480156105af57600080fd5b506105b8610ef3565b6040516105c5919061289b565b60405180910390f35b3480156105da57600080fd5b506105e3610f17565b6040516105f0919061271f565b60405180910390f35b34801561060557600080fd5b50610620600480360381019061061b91906120ad565b610f49565b60405161062d9190612763565b60405180910390f35b34801561064257600080fd5b5061065d600480360381019061065891906120d6565b610f61565b60405161066a9190612763565b60405180910390f35b34801561067f57600080fd5b50610688610f9f565b604051610695919061289b565b60405180910390f35b3480156106aa57600080fd5b506106b3610fa9565b6040516106c0919061271f565b60405180910390f35b3480156106d557600080fd5b506106f060048036038101906106eb919061205b565b610fe2565b6040516106fd919061289b565b60405180910390f35b34801561071257600080fd5b5061071b61102b565b604051610728919061289b565b60405180910390f35b34801561073d57600080fd5b50610746611031565b604051610753919061271f565b60405180910390f35b34801561076857600080fd5b50610783600480360381019061077e91906120ad565b6112bd565b6040516107909190612880565b60405180910390f35b3480156107a557600080fd5b506107ae61132d565b6040516107bb919061289b565b60405180910390f35b3480156107d057600080fd5b506107d961134d565b6040516107e6919061289b565b60405180910390f35b3480156107fb57600080fd5b5061081660048036038101906108119190612084565b611358565b604051610823919061289b565b60405180910390f35b34801561083857600080fd5b50610853600480360381019061084e9190612084565b611376565b60405161086091906126c0565b60405180910390f35b61087161141a565b60405161087e9190612763565b60405180910390f35b34801561089357600080fd5b506108ae60048036038101906108a9919061205b565b61167a565b6040516108bb919061289b565b60405180910390f35b6108cc611692565b6040516108d9919061271f565b60405180910390f35b3480156108ee57600080fd5b506108f76116d4565b604051610904919061289b565b60405180910390f35b34801561091957600080fd5b506109226116de565b60405161092f919061289b565b60405180910390f35b6001805461094590612b0b565b80601f016020809104026020016040519081016040528092919081815260200182805461097190612b0b565b80156109be5780601f10610993576101008083540402835291602001916109be565b820191906000526020600020905b8154815290600101906020018083116109a157829003601f168201915b505050505081565b600060026000541415610a0e576040517f08c379a0000000000000000000000000000000000000000000000000000000008152600401610a0590612860565b60405180910390fd5b6002600081905550610a1e610e7e565b610a5d576040517f08c379a0000000000000000000000000000000000000000000000000000000008152600401610a54906127c0565b60405180910390fd5b60066000600354815260200190815260200160002060040160009054906101000a900460ff1615610ac3576040517f08c379a0000000000000000000000000000000000000000000000000000000008152600401610aba90612820565b60405180910390fd5b610acb611702565b600660006003548152602001908152602001600020600101819055506000610af161170a565b90506000801b811415610b595760046000815480929190610b1190612b3d565b91905055507fe0dbc9529120eb99dfdd738608a453baef8223964340a20ebbc2d79558ea1f9a600082604051610b4892919061273a565b60405180910390a180915050610bc7565b8060066000600354815260200190815260200160002060030181905550610b7e61175c565b50610b87611926565b507fe0dbc9529120eb99dfdd738608a453baef8223964340a20ebbc2d79558ea1f9a600182604051610bba92919061273a565b60405180910390a1809150505b600160008190555090565b7f000000000000000000000000000000000000000000000000000000000000000081565b60007f0000000000000000000000000000000000000000000000000000000000000000600a610c2591906129f8565b905090565b6000600660006001815260200190815260200160002060030154600a600084815260200190815260200160002054149050919050565b670de0b6b3a764000081565b6000600660006001600354610c819190612a52565b815260200190815260200160002060030154905090565b600060066000600354815260200190815260200160002060020154905090565b600260009054906101000a900473ffffffffffffffffffffffffffffffffffffffff1681565b6060600860008381526020019081526020016000206000610cfd611947565b73ffffffffffffffffffffffffffffffffffffffff1673ffffffffffffffffffffffffffffffffffffffff168152602001908152602001600020805480602002602001604051908101604052809291908181526020018280548015610d8157602002820191906000526020600020905b815481526020019060010190808311610d6d575b50505050509050919050565b6000600554905090565b610d9f611f1f565b6040518060a00160405280610db261194f565b81526020016005610dc161194f565b610dcb9190612b90565b8152602001438152602001428152602001600554815250905090565b600060076000838152602001908152602001600020600101549050919050565b600060096000610e15611947565b73ffffffffffffffffffffffffffffffffffffffff1673ffffffffffffffffffffffffffffffffffffffff16815260200190815260200160002054905090565b6000600a6000838152602001908152602001600020549050919050565b60055481565b60045481565b60007f000000000000000000000000000000000000000000000000000000000000000060066000600354815260200190815260200160002060010154610ec2611702565b610ecc9190612a52565b1015905090565b600060066000600354815260200190815260200160002060010154905090565b7f000000000000000000000000000000000000000000000000000000000000000081565b60008060001b600660006001600354610f309190612a52565b8152602001908152602001600020600301541415905090565b600a6020528060005260406000206000915090505481565b60086020528260005260406000206020528160005260406000208181548110610f8957600080fd5b9060005260206000200160009250925050505481565b6000600354905090565b6000600660006001600354610fbe9190612a52565b815260200190815260200160002060040160009054906101000a900460ff16905090565b6000600960008373ffffffffffffffffffffffffffffffffffffffff1673ffffffffffffffffffffffffffffffffffffffff168152602001908152602001600020549050919050565b60035481565b600060026000541415611079576040517f08c379a000000000000000000000000000000000000000000000000000000000815260040161107090612860565b60405180910390fd5b600260008190555060006009600061108f611947565b73ffffffffffffffffffffffffffffffffffffffff1673ffffffffffffffffffffffffffffffffffffffff16815260200190815260200160002054141561110b576040517f08c379a000000000000000000000000000000000000000000000000000000000815260040161110290612800565b60405180910390fd5b600060096000611119611947565b73ffffffffffffffffffffffffffffffffffffffff1673ffffffffffffffffffffffffffffffffffffffff168152602001908152602001600020549050600060096000611164611947565b73ffffffffffffffffffffffffffffffffffffffff1673ffffffffffffffffffffffffffffffffffffffff168152602001908152602001600020819055506111aa611947565b73ffffffffffffffffffffffffffffffffffffffff166108fc829081150290604051600060405180830381858888f193505050501580156111ef573d6000803e3d6000fd5b506000600960006111fe611947565b73ffffffffffffffffffffffffffffffffffffffff1673ffffffffffffffffffffffffffffffffffffffff168152602001908152602001600020541461126d577f4e487b7100000000000000000000000000000000000000000000000000000000600052600160045260246000fd5b7f481007a75a4407f69a4ebcf25782e3537f6d76c13b46f71db08ae80c2b699e07611296611947565b826040516112a5929190612697565b60405180910390a16001915050600160008190555090565b6112c5611f41565b600660008381526020019081526020016000206040518060a0016040529081600082015481526020016001820154815260200160028201548152602001600382015481526020016004820160009054906101000a900460ff1615151515815250509050919050565b600060066000600354815260200190815260200160002060000154905090565b666a94d74f43000081565b60076020528060005260406000206000915090508060010154905081565b60606007600083815260200190815260200160002060000180548060200260200160405190810160405280929190818152602001828054801561140e57602002820191906000526020600020905b8160009054906101000a900473ffffffffffffffffffffffffffffffffffffffff1673ffffffffffffffffffffffffffffffffffffffff16815260200190600101908083116113c4575b50505050509050919050565b600060026000541415611462576040517f08c379a000000000000000000000000000000000000000000000000000000000815260040161145990612860565b60405180910390fd5b60026000819055507f000000000000000000000000000000000000000000000000000000000000000034146114cc576040517f08c379a00000000000000000000000000000000000000000000000000000000081526004016114c3906127e0565b60405180910390fd5b6000151560066000600354815260200190815260200160002060040160009054906101000a900460ff16151514611538576040517f08c379a000000000000000000000000000000000000000000000000000000000815260040161152f90612840565b60405180910390fd5b60003490506005600081548092919061155090612b3d565b919050555080600660006003548152602001908152602001600020600201600082825461157d9190612971565b92505081905550600061158e611986565b905060086000600354815260200190815260200160002060006115af611947565b73ffffffffffffffffffffffffffffffffffffffff1673ffffffffffffffffffffffffffffffffffffffff1681526020019081526020016000208190806001815401808255809150506001900390600052602060002001600090919091909150557f1a68cfba6503f189182fd0e12b64a6c8b19d129ee1bb7aba124ab08d8a57e468611639611947565b826006600060035481526020019081526020016000206002015460405161166293929190612660565b60405180910390a18092505050600160008190555090565b60096020528060005260406000206000915090505481565b600061169c61141a565b600a6000600b54815260200190815260200160002081905550600b60008154809291906116c890612b3d565b91905055506001905090565b6000600454905090565b7f000000000000000000000000000000000000000000000000000000000000000081565b600042905090565b600080611715611b96565b9050600061172282611bdb565b9050600060076000838152602001908152602001600020600001805490501115611750578092505050611759565b6000801b925050505b90565b6000600160066000600354815260200190815260200160002060040160006101000a81548160ff021916908315150217905550600060066000600354815260200190815260200160002060030154905060006007600083815260200190815260200160002060000180548060200260200160405190810160405280929190818152602001828054801561184457602002820191906000526020600020905b8160009054906101000a900473ffffffffffffffffffffffffffffffffffffffff1673ffffffffffffffffffffffffffffffffffffffff16815260200190600101908083116117fa575b505050505090506000611855611c18565b905060006118638285611caa565b905060005b835181101561191a5781600960008684815181106118af577f4e487b7100000000000000000000000000000000000000000000000000000000600052603260045260246000fd5b602002602001015173ffffffffffffffffffffffffffffffffffffffff1673ffffffffffffffffffffffffffffffffffffffff16815260200190815260200160002060008282546119009190612971565b92505081905550808061191290612b3d565b915050611868565b50600194505050505090565b600080600481905550600060058190555061193f611d85565b506001905090565b600033905090565b6000424360055460405160200161196893929190612608565b6040516020818303038152906040528051906020012060001c905090565b600080611991611b96565b9050600061199e82611bdb565b9050600060076000838152602001908152602001600020600001805490501115611a4a57600760008281526020019081526020016000206000016119e0611947565b9080600181540180825580915050600190039060005260206000200160009091909190916101000a81548173ffffffffffffffffffffffffffffffffffffffff021916908373ffffffffffffffffffffffffffffffffffffffff1602179055508092505050611b93565b6000600167ffffffffffffffff811115611a8d577f4e487b7100000000000000000000000000000000000000000000000000000000600052604160045260246000fd5b604051908082528060200260200182016040528015611abb5781602001602082028036833780820191505090505b509050611ac6611947565b81600081518110611b00577f4e487b7100000000000000000000000000000000000000000000000000000000600052603260045260246000fd5b602002602001019073ffffffffffffffffffffffffffffffffffffffff16908173ffffffffffffffffffffffffffffffffffffffff1681525050604051806040016040528082815260200184815250600760008481526020019081526020016000206000820151816000019080519060200190611b7e929190611f75565b50602082015181600101559050508193505050505b90565b600080611ba161194f565b905060007f000000000000000000000000000000000000000000000000000000000000000082611bd19190612b90565b9050809250505090565b60008060035460045484604051602001611bf793929190612608565b60405160208183030381529060405280519060200120905080915050919050565b6000806006600060035481526020019081526020016000206002015490506000611c4182611eeb565b905060008183611c519190612a52565b9050600660006003548152602001908152602001600020600201548110611ca1577f4e487b7100000000000000000000000000000000000000000000000000000000600052600160045260246000fd5b80935050505090565b6000806007600084815260200190815260200160002060000180549050905060008460066000600354815260200190815260200160002060020154611cef9190612a52565b90508060096000600260009054906101000a900473ffffffffffffffffffffffffffffffffffffffff1673ffffffffffffffffffffffffffffffffffffffff1673ffffffffffffffffffffffffffffffffffffffff1681526020019081526020016000206000828254611d629190612971565b9250508190555060008286611d7791906129c7565b905080935050505092915050565b6000806003541115611df75760066000600354815260200190815260200160002060040160009054906101000a900460ff16611df6576040517f08c379a0000000000000000000000000000000000000000000000000000000008152600401611ded906127a0565b60405180910390fd5b5b60036000815480929190611e0a90612b3d565b91905055506040518060a00160405280611e22611702565b8152602001611e2f611702565b8152602001600081526020016000801b8152602001600015158152506006600060035481526020019081526020016000206000820151816000015560208201518160010155604082015181600201556060820151816003015560808201518160040160006101000a81548160ff0219169083151502179055509050507fa35bd591310404f547e67d0f261a54d0a2a7606bf1695c5e9134f4259805eb7c600354604051611edc919061289b565b60405180910390a16001905090565b600080670de0b6b3a7640000666a94d74f43000084611f0a91906129f8565b611f1491906129c7565b905080915050919050565b6040518060a00160405280600590602082028036833780820191505090505090565b6040518060a00160405280600081526020016000815260200160008152602001600080191681526020016000151581525090565b828054828255906000526020600020908101928215611fee579160200282015b82811115611fed5782518260006101000a81548173ffffffffffffffffffffffffffffffffffffffff021916908373ffffffffffffffffffffffffffffffffffffffff16021790555091602001919060010190611f95565b5b509050611ffb9190611fff565b5090565b5b80821115612018576000816000905550600101612000565b5090565b60008135905061202b81612c5f565b92915050565b60008135905061204081612c76565b92915050565b60008135905061205581612c8d565b92915050565b60006020828403121561206d57600080fd5b600061207b8482850161201c565b91505092915050565b60006020828403121561209657600080fd5b60006120a484828501612031565b91505092915050565b6000602082840312156120bf57600080fd5b60006120cd84828501612046565b91505092915050565b6000806000606084860312156120eb57600080fd5b60006120f986828701612046565b935050602061210a8682870161201c565b925050604061211b86828701612046565b9150509250925092565b6000612131838361216d565b60208301905092915050565b600061214983836122bc565b60208301905092915050565b600061216183836125d3565b60208301905092915050565b61217681612a86565b82525050565b61218581612a86565b82525050565b6000612196826128e0565b6121a08185612933565b93506121ab836128b6565b8060005b838110156121dc5781516121c38882612125565b97506121ce8361290c565b9250506001810190506121af565b5085935050505092915050565b60006121f4826128eb565b6121fe8185612944565b9350612209836128c6565b8060005b8381101561223a578151612221888261213d565b975061222c83612919565b92505060018101905061220d565b5085935050505092915050565b612250816128f6565b61225a8184612955565b9250612265826128d6565b8060005b8381101561229657815161227d8782612155565b965061228883612926565b925050600181019050612269565b505050505050565b6122a781612a98565b82525050565b6122b681612a98565b82525050565b6122c581612aa4565b82525050565b6122d481612aa4565b82525050565b60006122e582612901565b6122ef8185612960565b93506122ff818560208601612ad8565b61230881612c4e565b840191505092915050565b6000612320602183612960565b91507f70726576696f7573206c6f747465727920686173206e6f742066696e6973686560008301527f64000000000000000000000000000000000000000000000000000000000000006020830152604082019050919050565b6000612386602683612960565b91507f4e6f7420656e6f7567682074696d6520656c61707365642066726f6d206c617360008301527f74206472617700000000000000000000000000000000000000000000000000006020830152604082019050919050565b60006123ec600d83612960565b91507f57726f6e6720616d6f756e742e000000000000000000000000000000000000006000830152602082019050919050565b600061242c601d83612960565b91507f796f752068617665206e6f2077696e6e696e677320746f20636c61696d0000006000830152602082019050919050565b600061246c603083612960565b91507f63757272656e74206c6f7474657279206973206f7665722e20706c656173652060008301527f73746172742061206e6577206f6e652e000000000000000000000000000000006020830152604082019050919050565b60006124d2603f83612960565b91507f612077696e6e65722068617320616c7265616479206265656e2073656c65637460008301527f65642e20706c656173652073746172742061206e6577206c6f74746572792e006020830152604082019050919050565b6000612538601f83612960565b91507f5265656e7472616e637947756172643a207265656e7472616e742063616c6c006000830152602082019050919050565b60a08201600082015161258160008501826125d3565b50602082015161259460208501826125d3565b5060408201516125a760408501826125d3565b5060608201516125ba60608501826122bc565b5060808201516125cd608085018261229e565b50505050565b6125dc81612ace565b82525050565b6125eb81612ace565b82525050565b6126026125fd82612ace565b612b86565b82525050565b600061261482866125f1565b60208201915061262482856125f1565b60208201915061263482846125f1565b602082019150819050949350505050565b600060208201905061265a600083018461217c565b92915050565b6000606082019050612675600083018661217c565b61268260208301856122cb565b61268f60408301846125e2565b949350505050565b60006040820190506126ac600083018561217c565b6126b960208301846125e2565b9392505050565b600060208201905081810360008301526126da818461218b565b905092915050565b600060208201905081810360008301526126fc81846121e9565b905092915050565b600060a0820190506127196000830184612247565b92915050565b600060208201905061273460008301846122ad565b92915050565b600060408201905061274f60008301856122ad565b61275c60208301846122cb565b9392505050565b600060208201905061277860008301846122cb565b92915050565b6000602082019050818103600083015261279881846122da565b905092915050565b600060208201905081810360008301526127b981612313565b9050919050565b600060208201905081810360008301526127d981612379565b9050919050565b600060208201905081810360008301526127f9816123df565b9050919050565b600060208201905081810360008301526128198161241f565b9050919050565b600060208201905081810360008301526128398161245f565b9050919050565b60006020820190508181036000830152612859816124c5565b9050919050565b600060208201905081810360008301526128798161252b565b9050919050565b600060a082019050612895600083018461256b565b92915050565b60006020820190506128b060008301846125e2565b92915050565b6000819050602082019050919050565b6000819050602082019050919050565b6000819050919050565b600081519050919050565b600081519050919050565b600060059050919050565b600081519050919050565b6000602082019050919050565b6000602082019050919050565b6000602082019050919050565b600082825260208201905092915050565b600082825260208201905092915050565b600081905092915050565b600082825260208201905092915050565b600061297c82612ace565b915061298783612ace565b9250827fffffffffffffffffffffffffffffffffffffffffffffffffffffffffffffffff038211156129bc576129bb612bc1565b5b828201905092915050565b60006129d282612ace565b91506129dd83612ace565b9250826129ed576129ec612bf0565b5b828204905092915050565b6000612a0382612ace565b9150612a0e83612ace565b9250817fffffffffffffffffffffffffffffffffffffffffffffffffffffffffffffffff0483118215151615612a4757612a46612bc1565b5b828202905092915050565b6000612a5d82612ace565b9150612a6883612ace565b925082821015612a7b57612a7a612bc1565b5b828203905092915050565b6000612a9182612aae565b9050919050565b60008115159050919050565b6000819050919050565b600073ffffffffffffffffffffffffffffffffffffffff82169050919050565b6000819050919050565b60005b83811015612af6578082015181840152602081019050612adb565b83811115612b05576000848401525b50505050565b60006002820490506001821680612b2357607f821691505b60208210811415612b3757612b36612c1f565b5b50919050565b6000612b4882612ace565b91507fffffffffffffffffffffffffffffffffffffffffffffffffffffffffffffffff821415612b7b57612b7a612bc1565b5b600182019050919050565b6000819050919050565b6000612b9b82612ace565b9150612ba683612ace565b925082612bb657612bb5612bf0565b5b828206905092915050565b7f4e487b7100000000000000000000000000000000000000000000000000000000600052601160045260246000fd5b7f4e487b7100000000000000000000000000000000000000000000000000000000600052601260045260246000fd5b7f4e487b7100000000000000000000000000000000000000000000000000000000600052602260045260246000fd5b6000601f19601f8301169050919050565b612c6881612a86565b8114612c7357600080fd5b50565b612c7f81612aa4565b8114612c8a57600080fd5b50565b612c9681612ace565b8114612ca157600080fd5b5056fea2646970667358221220755bfc362ff52872be90d5aab5ea7f3f8c84ef36b66b559a5c7ed9af8bdf04d464736f6c63430008000033",
  "linkReferences": {},
  "deployedLinkReferences": {}
}