{
    "contractName": "FantomLottery",
    "abi": [
        {
            "inputs": [
                {
                    "internalType": "string",
                    "name": "_name",
                    "type": "string"
                },
                {
                    "internalType": "uint256",
                    "name": "_frequency",
                    "type": "uint256"
                },
                {
                    "internalType": "uint256",
                    "name": "_price",
                    "type": "uint256"
                },
                {
                    "internalType": "uint256",
                    "name": "_odds",
                    "type": "uint256"
                },
                {
                    "internalType": "uint256",
                    "name": "_fee",
                    "type": "uint256"
                },
                {
                    "internalType": "address",
                    "name": "_treasury",
                    "type": "address"
                }
            ],
            "stateMutability": "nonpayable",
            "type": "constructor"
        },
        {
            "anonymous": false,
            "inputs": [
                {
                    "indexed": false,
                    "internalType": "bool",
                    "name": "winnerSelected",
                    "type": "bool"
                },
                {
                    "indexed": false,
                    "internalType": "bytes32",
                    "name": "winningTicket",
                    "type": "bytes32"
                }
            ],
            "name": "newDraw",
            "type": "event"
        },
        {
            "anonymous": false,
            "inputs": [
                {
                    "indexed": false,
                    "internalType": "address",
                    "name": "entrant",
                    "type": "address"
                },
                {
                    "indexed": false,
                    "internalType": "bytes32",
                    "name": "ticketID",
                    "type": "bytes32"
                },
                {
                    "indexed": false,
                    "internalType": "uint256",
                    "name": "totalPot",
                    "type": "uint256"
                }
            ],
            "name": "newEntry",
            "type": "event"
        },
        {
            "anonymous": false,
            "inputs": [
                {
                    "indexed": false,
                    "internalType": "address",
                    "name": "user",
                    "type": "address"
                },
                {
                    "indexed": false,
                    "internalType": "uint256",
                    "name": "amount",
                    "type": "uint256"
                }
            ],
            "name": "newPayment",
            "type": "event"
        },
        {
            "anonymous": false,
            "inputs": [
                {
                    "indexed": false,
                    "internalType": "uint256",
                    "name": "lottoNumber",
                    "type": "uint256"
                }
            ],
            "name": "newRound",
            "type": "event"
        },
        {
            "inputs": [
                {
                    "internalType": "contract IERC20",
                    "name": "",
                    "type": "address"
                }
            ],
            "name": "TokenDebtToRecipient",
            "outputs": [
                {
                    "internalType": "uint256",
                    "name": "",
                    "type": "uint256"
                }
            ],
            "stateMutability": "view",
            "type": "function"
        },
        {
            "inputs": [
                {
                    "internalType": "address",
                    "name": "newSweeper",
                    "type": "address"
                }
            ],
            "name": "changeSweeper",
            "outputs": [
                {
                    "internalType": "bool",
                    "name": "",
                    "type": "bool"
                }
            ],
            "stateMutability": "nonpayable",
            "type": "function"
        },
        {
            "inputs": [],
            "name": "currentDraw",
            "outputs": [
                {
                    "internalType": "uint256",
                    "name": "",
                    "type": "uint256"
                }
            ],
            "stateMutability": "view",
            "type": "function"
        },
        {
            "inputs": [],
            "name": "currentLotto",
            "outputs": [
                {
                    "internalType": "uint256",
                    "name": "",
                    "type": "uint256"
                }
            ],
            "stateMutability": "view",
            "type": "function"
        },
        {
            "inputs": [
                {
                    "internalType": "address",
                    "name": "",
                    "type": "address"
                }
            ],
            "name": "debtToUser",
            "outputs": [
                {
                    "internalType": "uint256",
                    "name": "",
                    "type": "uint256"
                }
            ],
            "stateMutability": "view",
            "type": "function"
        },
        {
            "inputs": [],
            "name": "draw",
            "outputs": [
                {
                    "internalType": "bool",
                    "name": "",
                    "type": "bool"
                }
            ],
            "stateMutability": "nonpayable",
            "type": "function"
        },
        {
            "inputs": [],
            "name": "enter",
            "outputs": [
                {
                    "internalType": "bool",
                    "name": "",
                    "type": "bool"
                }
            ],
            "stateMutability": "payable",
            "type": "function"
        },
        {
            "inputs": [],
            "name": "fantomDebtToRecipient",
            "outputs": [
                {
                    "internalType": "uint256",
                    "name": "",
                    "type": "uint256"
                }
            ],
            "stateMutability": "view",
            "type": "function"
        },
        {
            "inputs": [],
            "name": "fee",
            "outputs": [
                {
                    "internalType": "uint256",
                    "name": "",
                    "type": "uint256"
                }
            ],
            "stateMutability": "view",
            "type": "function"
        },
        {
            "inputs": [],
            "name": "frequency",
            "outputs": [
                {
                    "internalType": "uint256",
                    "name": "",
                    "type": "uint256"
                }
            ],
            "stateMutability": "view",
            "type": "function"
        },
        {
            "inputs": [],
            "name": "ftmDecimals",
            "outputs": [
                {
                    "internalType": "uint256",
                    "name": "",
                    "type": "uint256"
                }
            ],
            "stateMutability": "view",
            "type": "function"
        },
        {
            "inputs": [],
            "name": "getPaid",
            "outputs": [
                {
                    "internalType": "bool",
                    "name": "",
                    "type": "bool"
                }
            ],
            "stateMutability": "nonpayable",
            "type": "function"
        },
        {
            "inputs": [],
            "name": "name",
            "outputs": [
                {
                    "internalType": "string",
                    "name": "",
                    "type": "string"
                }
            ],
            "stateMutability": "view",
            "type": "function"
        },
        {
            "inputs": [],
            "name": "odds",
            "outputs": [
                {
                    "internalType": "uint256",
                    "name": "",
                    "type": "uint256"
                }
            ],
            "stateMutability": "view",
            "type": "function"
        },
        {
            "inputs": [],
            "name": "price",
            "outputs": [
                {
                    "internalType": "uint256",
                    "name": "",
                    "type": "uint256"
                }
            ],
            "stateMutability": "view",
            "type": "function"
        },
        {
            "inputs": [],
            "name": "readyToDraw",
            "outputs": [
                {
                    "internalType": "bool",
                    "name": "",
                    "type": "bool"
                }
            ],
            "stateMutability": "view",
            "type": "function"
        },
        {
            "inputs": [],
            "name": "self",
            "outputs": [
                {
                    "internalType": "address",
                    "name": "",
                    "type": "address"
                }
            ],
            "stateMutability": "view",
            "type": "function"
        },
        {
            "inputs": [
                {
                    "internalType": "address",
                    "name": "tokenToSweep",
                    "type": "address"
                }
            ],
            "name": "sweep",
            "outputs": [
                {
                    "internalType": "bool",
                    "name": "",
                    "type": "bool"
                }
            ],
            "stateMutability": "nonpayable",
            "type": "function"
        },
        {
            "inputs": [],
            "name": "sweeper",
            "outputs": [
                {
                    "internalType": "address",
                    "name": "",
                    "type": "address"
                }
            ],
            "stateMutability": "view",
            "type": "function"
        },
        {
            "inputs": [],
            "name": "ticketCounter",
            "outputs": [
                {
                    "internalType": "uint256",
                    "name": "",
                    "type": "uint256"
                }
            ],
            "stateMutability": "view",
            "type": "function"
        },
        {
            "inputs": [
                {
                    "internalType": "bytes32",
                    "name": "",
                    "type": "bytes32"
                }
            ],
            "name": "tickets",
            "outputs": [
                {
                    "internalType": "uint256",
                    "name": "ticketNumber",
                    "type": "uint256"
                }
            ],
            "stateMutability": "view",
            "type": "function"
        },
        {
            "inputs": [],
            "name": "totalValuePlayed",
            "outputs": [
                {
                    "internalType": "uint256",
                    "name": "",
                    "type": "uint256"
                }
            ],
            "stateMutability": "view",
            "type": "function"
        },
        {
            "inputs": [],
            "name": "treasury",
            "outputs": [
                {
                    "internalType": "address",
                    "name": "",
                    "type": "address"
                }
            ],
            "stateMutability": "view",
            "type": "function"
        },
        {
            "inputs": [
                {
                    "internalType": "uint256",
                    "name": "",
                    "type": "uint256"
                },
                {
                    "internalType": "address",
                    "name": "",
                    "type": "address"
                },
                {
                    "internalType": "uint256",
                    "name": "",
                    "type": "uint256"
                }
            ],
            "name": "userTickets",
            "outputs": [
                {
                    "internalType": "bytes32",
                    "name": "",
                    "type": "bytes32"
                }
            ],
            "stateMutability": "view",
            "type": "function"
        },
        {
            "inputs": [],
            "name": "viewCurrentLottery",
            "outputs": [
                {
                    "internalType": "uint256",
                    "name": "",
                    "type": "uint256"
                }
            ],
            "stateMutability": "view",
            "type": "function"
        },
        {
            "inputs": [],
            "name": "viewFantomCollected",
            "outputs": [
                {
                    "internalType": "uint256",
                    "name": "",
                    "type": "uint256"
                }
            ],
            "stateMutability": "view",
            "type": "function"
        },
        {
            "inputs": [],
            "name": "viewFrequency",
            "outputs": [
                {
                    "internalType": "uint256",
                    "name": "",
                    "type": "uint256"
                }
            ],
            "stateMutability": "view",
            "type": "function"
        },
        {
            "inputs": [
                {
                    "internalType": "uint256",
                    "name": "lottoNumber",
                    "type": "uint256"
                }
            ],
            "name": "viewLastDrawTime",
            "outputs": [
                {
                    "internalType": "uint256",
                    "name": "",
                    "type": "uint256"
                }
            ],
            "stateMutability": "view",
            "type": "function"
        },
        {
            "inputs": [],
            "name": "viewName",
            "outputs": [
                {
                    "internalType": "string",
                    "name": "",
                    "type": "string"
                }
            ],
            "stateMutability": "view",
            "type": "function"
        },
        {
            "inputs": [],
            "name": "viewPrice",
            "outputs": [
                {
                    "internalType": "uint256",
                    "name": "",
                    "type": "uint256"
                }
            ],
            "stateMutability": "view",
            "type": "function"
        },
        {
            "inputs": [
                {
                    "internalType": "uint256",
                    "name": "lottoNumber",
                    "type": "uint256"
                }
            ],
            "name": "viewStartTime",
            "outputs": [
                {
                    "internalType": "uint256",
                    "name": "",
                    "type": "uint256"
                }
            ],
            "stateMutability": "view",
            "type": "function"
        },
        {
            "inputs": [
                {
                    "internalType": "bytes32",
                    "name": "ticketID",
                    "type": "bytes32"
                }
            ],
            "name": "viewTicketHolders",
            "outputs": [
                {
                    "internalType": "address[]",
                    "name": "",
                    "type": "address[]"
                }
            ],
            "stateMutability": "view",
            "type": "function"
        },
        {
            "inputs": [
                {
                    "internalType": "bytes32",
                    "name": "ticketID",
                    "type": "bytes32"
                }
            ],
            "name": "viewTicketNumber",
            "outputs": [
                {
                    "internalType": "uint256",
                    "name": "",
                    "type": "uint256"
                }
            ],
            "stateMutability": "view",
            "type": "function"
        },
        {
            "inputs": [
                {
                    "internalType": "contract IERC20",
                    "name": "_token",
                    "type": "address"
                }
            ],
            "name": "viewTokensCollected",
            "outputs": [
                {
                    "internalType": "uint256",
                    "name": "",
                    "type": "uint256"
                }
            ],
            "stateMutability": "view",
            "type": "function"
        },
        {
            "inputs": [
                {
                    "internalType": "uint256",
                    "name": "lottoNumber",
                    "type": "uint256"
                }
            ],
            "name": "viewTotalPot",
            "outputs": [
                {
                    "internalType": "uint256",
                    "name": "",
                    "type": "uint256"
                }
            ],
            "stateMutability": "view",
            "type": "function"
        },
        {
            "inputs": [
                {
                    "internalType": "uint256",
                    "name": "lottoNumber",
                    "type": "uint256"
                }
            ],
            "name": "viewUserTicketList",
            "outputs": [
                {
                    "internalType": "bytes32[]",
                    "name": "",
                    "type": "bytes32[]"
                }
            ],
            "stateMutability": "view",
            "type": "function"
        },
        {
            "inputs": [],
            "name": "viewWinChance",
            "outputs": [
                {
                    "internalType": "uint256",
                    "name": "",
                    "type": "uint256"
                }
            ],
            "stateMutability": "view",
            "type": "function"
        },
        {
            "inputs": [
                {
                    "internalType": "uint256",
                    "name": "lottoNumber",
                    "type": "uint256"
                }
            ],
            "name": "viewWinningTicket",
            "outputs": [
                {
                    "internalType": "bytes32",
                    "name": "",
                    "type": "bytes32"
                }
            ],
            "stateMutability": "view",
            "type": "function"
        },
        {
            "inputs": [],
            "name": "viewWinnings",
            "outputs": [
                {
                    "internalType": "uint256",
                    "name": "",
                    "type": "uint256"
                }
            ],
            "stateMutability": "view",
            "type": "function"
        },
        {
            "inputs": [],
            "name": "withdrawFantom",
            "outputs": [
                {
                    "internalType": "bool",
                    "name": "",
                    "type": "bool"
                }
            ],
            "stateMutability": "nonpayable",
            "type": "function"
        },
        {
            "inputs": [
                {
                    "internalType": "contract IERC20",
                    "name": "ERC20Address",
                    "type": "address"
                }
            ],
            "name": "withdrawToken",
            "outputs": [
                {
                    "internalType": "bool",
                    "name": "",
                    "type": "bool"
                }
            ],
            "stateMutability": "nonpayable",
            "type": "function"
        }
    ],
    "bytecode": "60806040526000600581905560068190556007819055600855600f80546001600160a01b031916301790553480156200003757600080fd5b5060405162001df338038062001df38339810160408190526200005a9162000268565b600080546001600160a01b031916331790556001601281905586516200008691906020890190620001a5565b50600285905560038490556004839055600d829055600e80546001600160a01b0319166001600160a01b038316179055620000c0620000cd565b50505050505050620003f4565b6005805460009182620000e083620003b6565b91905055506040518060a0016040528062000100620001a160201b60201c565b815260200142815260006020808301829052604080840183905260609384018390526005805484526009835292819020855181558583015160018201558582015160028201559385015160038501556080909401516004909301805460ff1916931515939093179092555491519182527fa35bd591310404f547e67d0f261a54d0a2a7606bf1695c5e9134f4259805eb7c910160405180910390a150600190565b4290565b828054620001b39062000379565b90600052602060002090601f016020900481019282620001d7576000855562000222565b82601f10620001f257805160ff191683800117855562000222565b8280016001018555821562000222579182015b828111156200022257825182559160200191906001019062000205565b506200023092915062000234565b5090565b5b8082111562000230576000815560010162000235565b80516001600160a01b03811681146200026357600080fd5b919050565b60008060008060008060c0878903121562000281578182fd5b86516001600160401b038082111562000298578384fd5b818901915089601f830112620002ac578384fd5b815181811115620002c157620002c1620003de565b604051601f8201601f19908116603f01168101908382118183101715620002ec57620002ec620003de565b81604052828152602093508c8484870101111562000308578687fd5b8691505b828210156200032b57848201840151818301850152908301906200030c565b828211156200033c57868484830101525b809a5050505080890151965050506040870151935060608701519250608087015191506200036d60a088016200024b565b90509295509295509295565b6002810460018216806200038e57607f821691505b60208210811415620003b057634e487b7160e01b600052602260045260246000fd5b50919050565b6000600019821415620003d757634e487b7160e01b81526011600452602481fd5b5060010190565b634e487b7160e01b600052604160045260246000fd5b6119ef80620004046000396000f3fe6080604052600436106102465760003560e01c80639189a59e11610139578063c6289f25116100b6578063df0dd0d51161007a578063df0dd0d5146106b0578063e56d71bc146106e0578063e8665a0c1461070d578063e97dcb6214610722578063ead50da31461072a578063ebec93621461074057610246565b8063c6289f251461062a578063cd15cf611461065a578063cf41d6f814610670578063d7dcdcec14610685578063ddca3f431461069a57610246565b8063a035b1fe116100fd578063a035b1fe14610585578063a4b73a6d1461059b578063b5f10b38146105c8578063b858bb65146105dd578063b91c86f1146105fd57610246565b80639189a59e1461050f5780639209f5b61461052f57806397ba287c146105445780639ad572f51461055a5780639cd5b0d61461056f57610246565b806359acaa8c116101c75780637fb95ce21161018b5780637fb95ce21461045157806386ae228f1461048757806387687952146104b757806389476069146104d95780638c4d59d0146104f957610246565b806359acaa8c146103835780635d269be01461039957806361d027b3146103c95780637104ddb2146104015780637b5015c81461042157610246565b80631e6cccf91161020e5780631e6cccf9146102f6578063233de1261461030b57806340c87c18146103215780634cec4ed11461033657806350a582371461035657610246565b806301681a621461024b57806306fdde03146102805780630eecae21146102a25780630f17ed02146102b75780631b34d000146102da575b600080fd5b34801561025757600080fd5b5061026b6102663660046116f7565b61076d565b60405190151581526020015b60405180910390f35b34801561028c57600080fd5b506102956108e0565b604051610277919061181f565b3480156102ae57600080fd5b5061026b61096e565b3480156102c357600080fd5b506102cc610a12565b604051908152602001610277565b3480156102e657600080fd5b506102cc670de0b6b3a764000081565b34801561030257600080fd5b506010546102cc565b34801561031757600080fd5b506102cc60045481565b34801561032d57600080fd5b506004546102cc565b34801561034257600080fd5b5061026b6103513660046116f7565b610a19565b34801561036257600080fd5b506102cc6103713660046116f7565b60116020526000908152604090205481565b34801561038f57600080fd5b506102cc60105481565b3480156103a557600080fd5b506102cc6103b4366004611733565b60009081526009602052604090206001015490565b3480156103d557600080fd5b50600e546103e9906001600160a01b031681565b6040516001600160a01b039091168152602001610277565b34801561040d57600080fd5b50600f546103e9906001600160a01b031681565b34801561042d57600080fd5b506102cc61043c366004611733565b60009081526009602052604090206002015490565b34801561045d57600080fd5b506102cc61046c3660046116f7565b6001600160a01b031660009081526011602052604090205490565b34801561049357600080fd5b506102cc6104a2366004611733565b6000908152600a602052604090206001015490565b3480156104c357600080fd5b50336000908152600c60205260409020546102cc565b3480156104e557600080fd5b5061026b6104f43660046116f7565b610ab4565b34801561050557600080fd5b506102cc60075481565b34801561051b57600080fd5b506000546103e9906001600160a01b031681565b34801561053b57600080fd5b506002546102cc565b34801561055057600080fd5b506102cc60065481565b34801561056657600080fd5b5061026b610bbd565b34801561057b57600080fd5b506102cc60085481565b34801561059157600080fd5b506102cc60035481565b3480156105a757600080fd5b506102cc6105b6366004611733565b60009081526009602052604090205490565b3480156105d457600080fd5b50610295610be9565b3480156105e957600080fd5b506102cc6105f8366004611763565b610c7b565b34801561060957600080fd5b5061061d610618366004611733565b610cb9565b60405161027791906117e7565b34801561063657600080fd5b506102cc610645366004611733565b60009081526009602052604090206003015490565b34801561066657600080fd5b506102cc60055481565b34801561067c57600080fd5b5061026b610d23565b34801561069157600080fd5b506003546102cc565b3480156106a657600080fd5b506102cc600d5481565b3480156106bc57600080fd5b506102cc6106cb366004611733565b600a6020526000908152604090206001015481565b3480156106ec57600080fd5b506107006106fb366004611733565b610df8565b604051610277919061179a565b34801561071957600080fd5b5061026b610e63565b61026b610f4f565b34801561073657600080fd5b506102cc60025481565b34801561074c57600080fd5b506102cc61075b3660046116f7565b600c6020526000908152604090205481565b600080546001600160a01b0316336001600160a01b0316146107cc5760405162461bcd60e51b815260206004820152601360248201527236bab9ba103132903a34329039bbb2b2b832b960691b60448201526064015b60405180910390fd5b6040516370a0823160e01b81523060048201526000906001600160a01b038416906370a082319060240160206040518083038186803b15801561080e57600080fd5b505afa158015610822573d6000803e3d6000fd5b505050506040513d601f19601f82011682018060405250810190610846919061174b565b905080156108d75760005460405163a9059cbb60e01b81526001600160a01b039182166004820152602481018390529084169063a9059cbb906044015b602060405180830381600087803b15801561089d57600080fd5b505af11580156108b1573d6000803e3d6000fd5b505050506040513d601f19601f820116820180604052508101906108d59190611713565b505b50600192915050565b600180546108ed9061190b565b80601f01602080910402602001604051908101604052809291908181526020018280546109199061190b565b80156109665780601f1061093b57610100808354040283529160200191610966565b820191906000526020600020905b81548152906001019060200180831161094957829003601f168201915b505050505081565b6000600260125414156109935760405162461bcd60e51b81526004016107c390611872565b60026012556109a0610bbd565b6109e55760405162461bcd60e51b8152602060048201526016602482015275647261773a20746f6f20736f6f6e20746f206472617760501b60448201526064016107c3565b600554600090815260096020526040902042600190910155610a05610fdf565b5060019050600160125590565b6005545b90565b600080546001600160a01b0316336001600160a01b031614610a8f5760405162461bcd60e51b815260206004820152602960248201527f4f6e6c792074686520737765657065722063616e2061737369676e20612072656044820152681c1b1858d95b595b9d60ba1b60648201526084016107c3565b50600080546001600160a01b0383166001600160a01b03199091161790556001919050565b600e546000906001600160a01b03163314610b115760405162461bcd60e51b815260206004820152601d60248201527f596f7520617265206e6f74207468652066656520726563697069656e7400000060448201526064016107c3565b6001600160a01b038216600090815260116020526040902054610b725760405162461bcd60e51b8152602060048201526019602482015278796f752068617665206e6f7468696e6720746f20636c61696d60381b60448201526064016107c3565b6001600160a01b038281166000818152601160205260408082208054929055600e54905163a9059cbb60e01b815293166004840152602483018190529163a9059cbb90604401610883565b600254600554600090815260096020526040812060010154909190610be290426118f4565b1015905090565b606060018054610bf89061190b565b80601f0160208091040260200160405190810160405280929190818152602001828054610c249061190b565b8015610c715780601f10610c4657610100808354040283529160200191610c71565b820191906000526020600020905b815481529060010190602001808311610c5457829003601f168201915b5050505050905090565b600b6020528260005260406000206020528160005260406000208181548110610ca357600080fd5b9060005260206000200160009250925050505481565b6000818152600b60209081526040808320338452825291829020805483518184028101840190945280845260609392830182828015610d1757602002820191906000526020600020905b815481526020019060010190808311610d03575b50505050509050919050565b600060026012541415610d485760405162461bcd60e51b81526004016107c390611872565b6002601255336000908152600c6020526040902054610da95760405162461bcd60e51b815260206004820152601960248201527f676574506169643a206e6f7468696e6720746f20636c61696d0000000000000060448201526064016107c3565b336000818152600c602052604080822080549083905590519092916108fc841502918491818181858888f19350505050158015610dea573d6000803e3d6000fd5b506001915050600160125590565b6000818152600a6020908152604091829020805483518184028101840190945280845260609392830182828015610d1757602002820191906000526020600020905b81546001600160a01b03168152600190910190602001808311610e3a5750505050509050919050565b600e546000906001600160a01b03163314610ec05760405162461bcd60e51b815260206004820152601d60248201527f596f7520617265206e6f74207468652066656520726563697069656e7400000060448201526064016107c3565b600060105411610f0e5760405162461bcd60e51b8152602060048201526019602482015278796f752068617665206e6f7468696e6720746f20636c61696d60381b60448201526064016107c3565b601080546000918290556040519091339183156108fc0291849190818181858888f19350505050158015610f46573d6000803e3d6000fd5b50600191505090565b600060026012541415610f745760405162461bcd60e51b81526004016107c390611872565b60026012556003543414610fca5760405162461bcd60e51b815260206004820152601b60248201527f656e7465723a20696e76616c696420746f6b656e20616d6f756e74000000000060448201526064016107c3565b6000610fd46110bb565b9050610dea816110cf565b600080610fea6111ba565b90508061104a576006805490600061100183611946565b90915550506040805160008152602081018390527fe0dbc9529120eb99dfdd738608a453baef8223964340a20ebbc2d79558ea1f9a910160405180910390a16000915050610a16565b600554600090815260096020526040902060030181905561106961122f565b50611072611276565b506040805160018152602081018390527fe0dbc9529120eb99dfdd738608a453baef8223964340a20ebbc2d79558ea1f9a910160405180910390a16001915050610a16565b5090565b6000806110c9600354611292565b91505090565b60078054600091826110e083611946565b9190505550600354600860008282546110f991906118a9565b9091555050600554600090815260096020526040812060020180548492906111229084906118a9565b90915550600090506111326112cc565b600580546000908152600b602090815260408083203380855290835281842080546001810182559085528385200186905593548352600982529182902060020154825193845290830184905282820152519192507f1a68cfba6503f189182fd0e12b64a6c8b19d129ee1bb7aba124ab08d8a57e468919081900360600190a150600192915050565b6000806111c561140a565b60055460065460408051602080820194909452808201929092526060808301859052815180840390910181526080909201905280519101209091506000906000818152600a602052604090205490915015611223579150610a169050565b5060009150610a169050565b6005546000908152600960205260408120600401805460ff19166001179055611256611462565b61127057634e487b7160e01b600052600160045260246000fd5b50600190565b60006006819055600781905561128a611592565b506001905090565b60008061129e8361165b565b905080601060008282546112b291906118a9565b90915550600090506112c482856118f4565b949350505050565b6000806112d761140a565b60055460065460408051602080820194909452808201929092526060808301859052815180840390910181526080909201905280519101209091506000906000818152600a602052604090205490915015611363576000818152600a602090815260408220805460018101825590835291200180546001600160a01b031916331790559150610a169050565b6040805160018082528183019092526000916020808301908036833701905050905033816000815181106113a757634e487b7160e01b600052603260045260246000fd5b6001600160a01b039092166020928302919091018201526040805180820182528381528083018690526000858152600a84529190912081518051929391926113f29284920190611686565b5060209190910151600190910155509150610a169050565b60008061144960075460408051426020808301919091524382840152606080830194909452825180830390940184526080909101909152815191012090565b905060006004548261145b9190611961565b9250505090565b60055460009081526009602090815260408083206003810154600290910154818552600a909352908320549091908361149b82846118c1565b6000858152600a60209081526040808320805482518185028101850190935280835294955092939092918301828280156114fe57602002820191906000526020600020905b81546001600160a01b031681526001909101906020018083116114e0575b5050505050905060005b81518110156115855782600c600084848151811061153657634e487b7160e01b600052603260045260246000fd5b60200260200101516001600160a01b03166001600160a01b03168152602001908152602001600020600082825461156d91906118a9565b9091555081905061157d81611946565b915050611508565b5060019550505050505090565b60058054600091826115a383611946565b91905055506040518060a001604052806115ba4290565b815260200142815260006020808301829052604080840183905260609384018390526005805484526009835292819020855181558583015160018201558582015160028201559385015160038501556080909401516004909301805460ff1916931515939093179092555491519182527fa35bd591310404f547e67d0f261a54d0a2a7606bf1695c5e9134f4259805eb7c910160405180910390a150600190565b600080670de0b6b3a7640000600d548461167591906118d5565b61167f91906118c1565b9392505050565b8280548282559060005260206000209081019282156116db579160200282015b828111156116db57825182546001600160a01b0319166001600160a01b039091161782556020909201916001909101906116a6565b506110b79291505b808211156110b757600081556001016116e3565b600060208284031215611708578081fd5b813561167f816119a1565b600060208284031215611724578081fd5b8151801515811461167f578182fd5b600060208284031215611744578081fd5b5035919050565b60006020828403121561175c578081fd5b5051919050565b600080600060608486031215611777578182fd5b833592506020840135611789816119a1565b929592945050506040919091013590565b6020808252825182820181905260009190848201906040850190845b818110156117db5783516001600160a01b0316835292840192918401916001016117b6565b50909695505050505050565b6020808252825182820181905260009190848201906040850190845b818110156117db57835183529284019291840191600101611803565b6000602080835283518082850152825b8181101561184b5785810183015185820160400152820161182f565b8181111561185c5783604083870101525b50601f01601f1916929092016040019392505050565b6020808252601f908201527f5265656e7472616e637947756172643a207265656e7472616e742063616c6c00604082015260600190565b600082198211156118bc576118bc611975565b500190565b6000826118d0576118d061198b565b500490565b60008160001904831182151516156118ef576118ef611975565b500290565b60008282101561190657611906611975565b500390565b60028104600182168061191f57607f821691505b6020821081141561194057634e487b7160e01b600052602260045260246000fd5b50919050565b600060001982141561195a5761195a611975565b5060010190565b6000826119705761197061198b565b500690565b634e487b7160e01b600052601160045260246000fd5b634e487b7160e01b600052601260045260246000fd5b6001600160a01b03811681146119b657600080fd5b5056fea26469706673582212208013f0c25c8b271925a20d39faae606ae5c7d4ef678261f245b96d58407eccd364736f6c63430008020033",
    "sourcePath": "/Users/unico/Documents/GitHub/roam/lottery/flats/FantomLottery_flat.sol",
    "compiler": {
        "name": "solc",
        "version": "0.8.2+commit.661d1103"
    },
    "functionHashes": {
        "TokenDebtToRecipient(address)": "50a58237",
        "changeSweeper(address)": "4cec4ed1",
        "currentDraw()": "97ba287c",
        "currentLotto()": "cd15cf61",
        "debtToUser(address)": "ebec9362",
        "draw()": "0eecae21",
        "enter()": "e97dcb62",
        "fantomDebtToRecipient()": "59acaa8c",
        "fee()": "ddca3f43",
        "frequency()": "ead50da3",
        "ftmDecimals()": "1b34d000",
        "getPaid()": "cf41d6f8",
        "name()": "06fdde03",
        "odds()": "233de126",
        "price()": "a035b1fe",
        "readyToDraw()": "9ad572f5",
        "self()": "7104ddb2",
        "sweep(address)": "01681a62",
        "sweeper()": "9189a59e",
        "ticketCounter()": "8c4d59d0",
        "tickets(bytes32)": "df0dd0d5",
        "totalValuePlayed()": "9cd5b0d6",
        "treasury()": "61d027b3",
        "userTickets(uint256,address,uint256)": "b858bb65",
        "viewCurrentLottery()": "0f17ed02",
        "viewFantomCollected()": "1e6cccf9",
        "viewFrequency()": "9209f5b6",
        "viewLastDrawTime(uint256)": "5d269be0",
        "viewName()": "b5f10b38",
        "viewPrice()": "d7dcdcec",
        "viewStartTime(uint256)": "a4b73a6d",
        "viewTicketHolders(bytes32)": "e56d71bc",
        "viewTicketNumber(bytes32)": "86ae228f",
        "viewTokensCollected(address)": "7fb95ce2",
        "viewTotalPot(uint256)": "7b5015c8",
        "viewUserTicketList(uint256)": "b91c86f1",
        "viewWinChance()": "40c87c18",
        "viewWinningTicket(uint256)": "c6289f25",
        "viewWinnings()": "87687952",
        "withdrawFantom()": "e8665a0c",
        "withdrawToken(address)": "89476069"
    },
    "gasEstimates": {
        "creation": {
            "codeDepositCost": "1327800",
            "executionCost": "infinite",
            "totalCost": "infinite"
        },
        "external": {
            "TokenDebtToRecipient(address)": "1347",
            "changeSweeper(address)": "22194",
            "currentDraw()": "1085",
            "currentLotto()": "1062",
            "debtToUser(address)": "1367",
            "draw()": "infinite",
            "enter()": "infinite",
            "fantomDebtToRecipient()": "1041",
            "fee()": "1128",
            "frequency()": "1127",
            "ftmDecimals()": "330",
            "getPaid()": "infinite",
            "name()": "infinite",
            "odds()": "1063",
            "price()": "1040",
            "readyToDraw()": "2878",
            "self()": "1149",
            "sweep(address)": "infinite",
            "sweeper()": "1083",
            "ticketCounter()": "1128",
            "tickets(bytes32)": "1188",
            "totalValuePlayed()": "1129",
            "treasury()": "1127",
            "userTickets(uint256,address,uint256)": "2343",
            "viewCurrentLottery()": "1121",
            "viewFantomCollected()": "1038",
            "viewFrequency()": "1060",
            "viewLastDrawTime(uint256)": "1212",
            "viewName()": "infinite",
            "viewPrice()": "1103",
            "viewStartTime(uint256)": "1205",
            "viewTicketHolders(bytes32)": "infinite",
            "viewTicketNumber(bytes32)": "1211",
            "viewTokensCollected(address)": "1276",
            "viewTotalPot(uint256)": "1278",
            "viewUserTicketList(uint256)": "infinite",
            "viewWinChance()": "1082",
            "viewWinningTicket(uint256)": "1189",
            "viewWinnings()": "1149",
            "withdrawFantom()": "infinite",
            "withdrawToken(address)": "infinite"
        },
        "internal": {
            "beforeEachDraw()": "infinite",
            "beforeEachEnter()": "22851",
            "beforeEachPayment()": "infinite"
        }
    }
}