{
    "contractName": "TokenLottery",
    "abi": [
        {
            "inputs": [
                {
                    "internalType": "string",
                    "name": "_name",
                    "type": "string"
                },
                {
                    "internalType": "uint256",
                    "name": "_frequency",
                    "type": "uint256"
                },
                {
                    "internalType": "uint256",
                    "name": "_price",
                    "type": "uint256"
                },
                {
                    "internalType": "uint256",
                    "name": "_odds",
                    "type": "uint256"
                },
                {
                    "internalType": "contract IERC20",
                    "name": "_inputToken",
                    "type": "address"
                },
                {
                    "internalType": "uint256",
                    "name": "_fee",
                    "type": "uint256"
                },
                {
                    "internalType": "address",
                    "name": "_treasury",
                    "type": "address"
                }
            ],
            "stateMutability": "nonpayable",
            "type": "constructor"
        },
        {
            "anonymous": false,
            "inputs": [
                {
                    "indexed": false,
                    "internalType": "bool",
                    "name": "winnerSelected",
                    "type": "bool"
                },
                {
                    "indexed": false,
                    "internalType": "bytes32",
                    "name": "winningTicket",
                    "type": "bytes32"
                }
            ],
            "name": "newDraw",
            "type": "event"
        },
        {
            "anonymous": false,
            "inputs": [
                {
                    "indexed": false,
                    "internalType": "address",
                    "name": "entrant",
                    "type": "address"
                },
                {
                    "indexed": false,
                    "internalType": "bytes32",
                    "name": "ticketID",
                    "type": "bytes32"
                },
                {
                    "indexed": false,
                    "internalType": "uint256",
                    "name": "totalPot",
                    "type": "uint256"
                }
            ],
            "name": "newEntry",
            "type": "event"
        },
        {
            "anonymous": false,
            "inputs": [
                {
                    "indexed": false,
                    "internalType": "address",
                    "name": "user",
                    "type": "address"
                },
                {
                    "indexed": false,
                    "internalType": "uint256",
                    "name": "amount",
                    "type": "uint256"
                }
            ],
            "name": "newPayment",
            "type": "event"
        },
        {
            "anonymous": false,
            "inputs": [
                {
                    "indexed": false,
                    "internalType": "uint256",
                    "name": "lottoNumber",
                    "type": "uint256"
                }
            ],
            "name": "newRound",
            "type": "event"
        },
        {
            "inputs": [
                {
                    "internalType": "contract IERC20",
                    "name": "",
                    "type": "address"
                }
            ],
            "name": "TokenDebtToRecipient",
            "outputs": [
                {
                    "internalType": "uint256",
                    "name": "",
                    "type": "uint256"
                }
            ],
            "stateMutability": "view",
            "type": "function"
        },
        {
            "inputs": [
                {
                    "internalType": "address",
                    "name": "newSweeper",
                    "type": "address"
                }
            ],
            "name": "changeSweeper",
            "outputs": [
                {
                    "internalType": "bool",
                    "name": "",
                    "type": "bool"
                }
            ],
            "stateMutability": "nonpayable",
            "type": "function"
        },
        {
            "inputs": [],
            "name": "currentDraw",
            "outputs": [
                {
                    "internalType": "uint256",
                    "name": "",
                    "type": "uint256"
                }
            ],
            "stateMutability": "view",
            "type": "function"
        },
        {
            "inputs": [],
            "name": "currentLotto",
            "outputs": [
                {
                    "internalType": "uint256",
                    "name": "",
                    "type": "uint256"
                }
            ],
            "stateMutability": "view",
            "type": "function"
        },
        {
            "inputs": [
                {
                    "internalType": "address",
                    "name": "",
                    "type": "address"
                }
            ],
            "name": "debtToUser",
            "outputs": [
                {
                    "internalType": "uint256",
                    "name": "",
                    "type": "uint256"
                }
            ],
            "stateMutability": "view",
            "type": "function"
        },
        {
            "inputs": [],
            "name": "draw",
            "outputs": [
                {
                    "internalType": "bool",
                    "name": "",
                    "type": "bool"
                }
            ],
            "stateMutability": "nonpayable",
            "type": "function"
        },
        {
            "inputs": [],
            "name": "enter",
            "outputs": [
                {
                    "internalType": "bool",
                    "name": "",
                    "type": "bool"
                }
            ],
            "stateMutability": "nonpayable",
            "type": "function"
        },
        {
            "inputs": [],
            "name": "fantomDebtToRecipient",
            "outputs": [
                {
                    "internalType": "uint256",
                    "name": "",
                    "type": "uint256"
                }
            ],
            "stateMutability": "view",
            "type": "function"
        },
        {
            "inputs": [],
            "name": "fee",
            "outputs": [
                {
                    "internalType": "uint256",
                    "name": "",
                    "type": "uint256"
                }
            ],
            "stateMutability": "view",
            "type": "function"
        },
        {
            "inputs": [],
            "name": "frequency",
            "outputs": [
                {
                    "internalType": "uint256",
                    "name": "",
                    "type": "uint256"
                }
            ],
            "stateMutability": "view",
            "type": "function"
        },
        {
            "inputs": [],
            "name": "ftmDecimals",
            "outputs": [
                {
                    "internalType": "uint256",
                    "name": "",
                    "type": "uint256"
                }
            ],
            "stateMutability": "view",
            "type": "function"
        },
        {
            "inputs": [],
            "name": "getPaid",
            "outputs": [
                {
                    "internalType": "bool",
                    "name": "",
                    "type": "bool"
                }
            ],
            "stateMutability": "nonpayable",
            "type": "function"
        },
        {
            "inputs": [],
            "name": "inputToken",
            "outputs": [
                {
                    "internalType": "contract IERC20",
                    "name": "",
                    "type": "address"
                }
            ],
            "stateMutability": "view",
            "type": "function"
        },
        {
            "inputs": [],
            "name": "name",
            "outputs": [
                {
                    "internalType": "string",
                    "name": "",
                    "type": "string"
                }
            ],
            "stateMutability": "view",
            "type": "function"
        },
        {
            "inputs": [],
            "name": "odds",
            "outputs": [
                {
                    "internalType": "uint256",
                    "name": "",
                    "type": "uint256"
                }
            ],
            "stateMutability": "view",
            "type": "function"
        },
        {
            "inputs": [],
            "name": "price",
            "outputs": [
                {
                    "internalType": "uint256",
                    "name": "",
                    "type": "uint256"
                }
            ],
            "stateMutability": "view",
            "type": "function"
        },
        {
            "inputs": [],
            "name": "readyToDraw",
            "outputs": [
                {
                    "internalType": "bool",
                    "name": "",
                    "type": "bool"
                }
            ],
            "stateMutability": "view",
            "type": "function"
        },
        {
            "inputs": [],
            "name": "self",
            "outputs": [
                {
                    "internalType": "address",
                    "name": "",
                    "type": "address"
                }
            ],
            "stateMutability": "view",
            "type": "function"
        },
        {
            "inputs": [
                {
                    "internalType": "address",
                    "name": "tokenToSweep",
                    "type": "address"
                }
            ],
            "name": "sweep",
            "outputs": [
                {
                    "internalType": "bool",
                    "name": "",
                    "type": "bool"
                }
            ],
            "stateMutability": "nonpayable",
            "type": "function"
        },
        {
            "inputs": [],
            "name": "sweeper",
            "outputs": [
                {
                    "internalType": "address",
                    "name": "",
                    "type": "address"
                }
            ],
            "stateMutability": "view",
            "type": "function"
        },
        {
            "inputs": [],
            "name": "ticketCounter",
            "outputs": [
                {
                    "internalType": "uint256",
                    "name": "",
                    "type": "uint256"
                }
            ],
            "stateMutability": "view",
            "type": "function"
        },
        {
            "inputs": [
                {
                    "internalType": "bytes32",
                    "name": "",
                    "type": "bytes32"
                }
            ],
            "name": "tickets",
            "outputs": [
                {
                    "internalType": "uint256",
                    "name": "ticketNumber",
                    "type": "uint256"
                }
            ],
            "stateMutability": "view",
            "type": "function"
        },
        {
            "inputs": [],
            "name": "totalValuePlayed",
            "outputs": [
                {
                    "internalType": "uint256",
                    "name": "",
                    "type": "uint256"
                }
            ],
            "stateMutability": "view",
            "type": "function"
        },
        {
            "inputs": [],
            "name": "treasury",
            "outputs": [
                {
                    "internalType": "address",
                    "name": "",
                    "type": "address"
                }
            ],
            "stateMutability": "view",
            "type": "function"
        },
        {
            "inputs": [
                {
                    "internalType": "uint256",
                    "name": "",
                    "type": "uint256"
                },
                {
                    "internalType": "address",
                    "name": "",
                    "type": "address"
                },
                {
                    "internalType": "uint256",
                    "name": "",
                    "type": "uint256"
                }
            ],
            "name": "userTickets",
            "outputs": [
                {
                    "internalType": "bytes32",
                    "name": "",
                    "type": "bytes32"
                }
            ],
            "stateMutability": "view",
            "type": "function"
        },
        {
            "inputs": [],
            "name": "viewCurrentLottery",
            "outputs": [
                {
                    "internalType": "uint256",
                    "name": "",
                    "type": "uint256"
                }
            ],
            "stateMutability": "view",
            "type": "function"
        },
        {
            "inputs": [],
            "name": "viewFantomCollected",
            "outputs": [
                {
                    "internalType": "uint256",
                    "name": "",
                    "type": "uint256"
                }
            ],
            "stateMutability": "view",
            "type": "function"
        },
        {
            "inputs": [],
            "name": "viewFrequency",
            "outputs": [
                {
                    "internalType": "uint256",
                    "name": "",
                    "type": "uint256"
                }
            ],
            "stateMutability": "view",
            "type": "function"
        },
        {
            "inputs": [
                {
                    "internalType": "uint256",
                    "name": "lottoNumber",
                    "type": "uint256"
                }
            ],
            "name": "viewLastDrawTime",
            "outputs": [
                {
                    "internalType": "uint256",
                    "name": "",
                    "type": "uint256"
                }
            ],
            "stateMutability": "view",
            "type": "function"
        },
        {
            "inputs": [],
            "name": "viewName",
            "outputs": [
                {
                    "internalType": "string",
                    "name": "",
                    "type": "string"
                }
            ],
            "stateMutability": "view",
            "type": "function"
        },
        {
            "inputs": [],
            "name": "viewPrice",
            "outputs": [
                {
                    "internalType": "uint256",
                    "name": "",
                    "type": "uint256"
                }
            ],
            "stateMutability": "view",
            "type": "function"
        },
        {
            "inputs": [
                {
                    "internalType": "uint256",
                    "name": "lottoNumber",
                    "type": "uint256"
                }
            ],
            "name": "viewStartTime",
            "outputs": [
                {
                    "internalType": "uint256",
                    "name": "",
                    "type": "uint256"
                }
            ],
            "stateMutability": "view",
            "type": "function"
        },
        {
            "inputs": [
                {
                    "internalType": "bytes32",
                    "name": "ticketID",
                    "type": "bytes32"
                }
            ],
            "name": "viewTicketHolders",
            "outputs": [
                {
                    "internalType": "address[]",
                    "name": "",
                    "type": "address[]"
                }
            ],
            "stateMutability": "view",
            "type": "function"
        },
        {
            "inputs": [
                {
                    "internalType": "bytes32",
                    "name": "ticketID",
                    "type": "bytes32"
                }
            ],
            "name": "viewTicketNumber",
            "outputs": [
                {
                    "internalType": "uint256",
                    "name": "",
                    "type": "uint256"
                }
            ],
            "stateMutability": "view",
            "type": "function"
        },
        {
            "inputs": [],
            "name": "viewTokenAddress",
            "outputs": [
                {
                    "internalType": "address",
                    "name": "",
                    "type": "address"
                }
            ],
            "stateMutability": "view",
            "type": "function"
        },
        {
            "inputs": [
                {
                    "internalType": "contract IERC20",
                    "name": "_token",
                    "type": "address"
                }
            ],
            "name": "viewTokensCollected",
            "outputs": [
                {
                    "internalType": "uint256",
                    "name": "",
                    "type": "uint256"
                }
            ],
            "stateMutability": "view",
            "type": "function"
        },
        {
            "inputs": [
                {
                    "internalType": "uint256",
                    "name": "lottoNumber",
                    "type": "uint256"
                }
            ],
            "name": "viewTotalPot",
            "outputs": [
                {
                    "internalType": "uint256",
                    "name": "",
                    "type": "uint256"
                }
            ],
            "stateMutability": "view",
            "type": "function"
        },
        {
            "inputs": [
                {
                    "internalType": "uint256",
                    "name": "lottoNumber",
                    "type": "uint256"
                }
            ],
            "name": "viewUserTicketList",
            "outputs": [
                {
                    "internalType": "bytes32[]",
                    "name": "",
                    "type": "bytes32[]"
                }
            ],
            "stateMutability": "view",
            "type": "function"
        },
        {
            "inputs": [],
            "name": "viewWinChance",
            "outputs": [
                {
                    "internalType": "uint256",
                    "name": "",
                    "type": "uint256"
                }
            ],
            "stateMutability": "view",
            "type": "function"
        },
        {
            "inputs": [
                {
                    "internalType": "uint256",
                    "name": "lottoNumber",
                    "type": "uint256"
                }
            ],
            "name": "viewWinningTicket",
            "outputs": [
                {
                    "internalType": "bytes32",
                    "name": "",
                    "type": "bytes32"
                }
            ],
            "stateMutability": "view",
            "type": "function"
        },
        {
            "inputs": [],
            "name": "viewWinnings",
            "outputs": [
                {
                    "internalType": "uint256",
                    "name": "",
                    "type": "uint256"
                }
            ],
            "stateMutability": "view",
            "type": "function"
        },
        {
            "inputs": [],
            "name": "withdrawFantom",
            "outputs": [
                {
                    "internalType": "bool",
                    "name": "",
                    "type": "bool"
                }
            ],
            "stateMutability": "nonpayable",
            "type": "function"
        },
        {
            "inputs": [
                {
                    "internalType": "contract IERC20",
                    "name": "ERC20Address",
                    "type": "address"
                }
            ],
            "name": "withdrawToken",
            "outputs": [
                {
                    "internalType": "bool",
                    "name": "",
                    "type": "bool"
                }
            ],
            "stateMutability": "nonpayable",
            "type": "function"
        }
    ],
    "bytecode": "60806040526000600581905560068190556007819055600855600f80546001600160a01b031916301790553480156200003757600080fd5b5060405162001da838038062001da88339810160408190526200005a9162000279565b600080546001600160a01b031916331790558651620000819060019060208a0190620001b6565b50600286905560038590556004849055600d829055600e80546001600160a01b038084166001600160a01b0319928316179092556012805492861692909116919091179055620000d0620000de565b505050505050505062000419565b6005805460009182620000f183620003db565b91905055506040518060a0016040528062000111620001b260201b60201c565b815260200142815260006020808301829052604080840183905260609384018390526005805484526009835292819020855181558583015160018201558582015160028201559385015160038501556080909401516004909301805460ff1916931515939093179092555491519182527fa35bd591310404f547e67d0f261a54d0a2a7606bf1695c5e9134f4259805eb7c910160405180910390a150600190565b4290565b828054620001c4906200039e565b90600052602060002090601f016020900481019282620001e8576000855562000233565b82601f106200020357805160ff191683800117855562000233565b8280016001018555821562000233579182015b828111156200023357825182559160200191906001019062000216565b506200024192915062000245565b5090565b5b8082111562000241576000815560010162000246565b80516001600160a01b03811681146200027457600080fd5b919050565b600080600080600080600060e0888a03121562000294578283fd5b87516001600160401b0380821115620002ab578485fd5b818a0191508a601f830112620002bf578485fd5b815181811115620002d457620002d462000403565b604051601f8201601f19908116603f01168101908382118183101715620002ff57620002ff62000403565b81604052828152602093508d848487010111156200031b578788fd5b8791505b828210156200033e57848201840151818301850152908301906200031f565b828211156200034f57878484830101525b809b50505050808a015197505050604088015194506060880151935062000379608089016200025c565b925060a088015191506200039060c089016200025c565b905092959891949750929550565b600281046001821680620003b357607f821691505b60208210811415620003d557634e487b7160e01b600052602260045260246000fd5b50919050565b6000600019821415620003fc57634e487b7160e01b81526011600452602481fd5b5060010190565b634e487b7160e01b600052604160045260246000fd5b61197f80620004296000396000f3fe608060405234801561001057600080fd5b50600436106102695760003560e01c80638c4d59d011610151578063c6289f25116100c3578063df0dd0d511610087578063df0dd0d514610523578063e56d71bc14610546578063e8665a0c14610566578063e97dcb621461056e578063ead50da314610576578063ebec93621461057f57610269565b8063c6289f25146104de578063cd15cf6114610501578063cf41d6f81461050a578063d7dcdcec14610512578063ddca3f431461051a57610269565b80639cd5b0d6116101155780639cd5b0d614610471578063a035b1fe1461047a578063a4b73a6d14610483578063b5f10b38146104a3578063b858bb65146104ab578063b91c86f1146104be57610269565b80638c4d59d01461043c5780639189a59e146104455780639209f5b61461045857806397ba287c146104605780639ad572f51461046957610269565b80634cec4ed1116101ea5780637104ddb2116101ae5780637104ddb2146103925780637b5015c8146103a55780637fb95ce2146103c857806386ae228f146103f15780638768795214610414578063894760691461042957610269565b80634cec4ed11461032057806350a582371461033357806359acaa8c146103535780635d269be01461035c57806361d027b31461037f57610269565b80630f17ed02116102315780630f17ed02146102e65780631b34d000146102f85780631e6cccf914610307578063233de1261461030f57806340c87c181461031857610269565b806301681a621461026e57806301b60ef21461029657806306fdde03146102c1578063093b13a7146102d65780630eecae21146102de575b600080fd5b61028161027c3660046116be565b61059f565b60405190151581526020015b60405180910390f35b6012546102a9906001600160a01b031681565b6040516001600160a01b03909116815260200161028d565b6102c9610712565b60405161028d91906117e6565b6102a96107a0565b6102816107b0565b6005545b60405190815260200161028d565b6102ea670de0b6b3a764000081565b6010546102ea565b6102ea60045481565b6004546102ea565b61028161032e3660046116be565b610842565b6102ea6103413660046116be565b60116020526000908152604090205481565b6102ea60105481565b6102ea61036a3660046116fa565b60009081526009602052604090206001015490565b600e546102a9906001600160a01b031681565b600f546102a9906001600160a01b031681565b6102ea6103b33660046116fa565b60009081526009602052604090206002015490565b6102ea6103d63660046116be565b6001600160a01b031660009081526011602052604090205490565b6102ea6103ff3660046116fa565b6000908152600a602052604090206001015490565b336000908152600c60205260409020546102ea565b6102816104373660046116be565b6108dd565b6102ea60075481565b6000546102a9906001600160a01b031681565b6002546102ea565b6102ea60065481565b6102816109e6565b6102ea60085481565b6102ea60035481565b6102ea6104913660046116fa565b60009081526009602052604090205490565b6102c9610a12565b6102ea6104b936600461172a565b610aa4565b6104d16104cc3660046116fa565b610ae2565b60405161028d91906117ae565b6102ea6104ec3660046116fa565b60009081526009602052604090206003015490565b6102ea60055481565b610281610b4c565b6003546102ea565b6102ea600d5481565b6102ea6105313660046116fa565b600a6020526000908152604090206001015481565b6105596105543660046116fa565b610c9e565b60405161028d9190611761565b610281610d09565b610281610df5565b6102ea60025481565b6102ea61058d3660046116be565b600c6020526000908152604090205481565b600080546001600160a01b0316336001600160a01b0316146105fe5760405162461bcd60e51b815260206004820152601360248201527236bab9ba103132903a34329039bbb2b2b832b960691b60448201526064015b60405180910390fd5b6040516370a0823160e01b81523060048201526000906001600160a01b038416906370a082319060240160206040518083038186803b15801561064057600080fd5b505afa158015610654573d6000803e3d6000fd5b505050506040513d601f19601f820116820180604052508101906106789190611712565b905080156107095760005460405163a9059cbb60e01b81526001600160a01b039182166004820152602481018390529084169063a9059cbb906044015b602060405180830381600087803b1580156106cf57600080fd5b505af11580156106e3573d6000803e3d6000fd5b505050506040513d601f19601f8201168201806040525081019061070791906116da565b505b50600192915050565b6001805461071f9061189b565b80601f016020809104026020016040519081016040528092919081815260200182805461074b9061189b565b80156107985780601f1061076d57610100808354040283529160200191610798565b820191906000526020600020905b81548152906001019060200180831161077b57829003601f168201915b505050505081565b6012546001600160a01b03165b90565b60006107ba6109e6565b61081a5760405162461bcd60e51b815260206004820152602b60248201527f6e6f7420656e6f7567682074696d652068617320656c61707365642073696e6360448201526a65206c617374206472617760a81b60648201526084016105f5565b60055460009081526009602052604090204260019091015561083a610ee8565b506001905090565b600080546001600160a01b0316336001600160a01b0316146108b85760405162461bcd60e51b815260206004820152602960248201527f4f6e6c792074686520737765657065722063616e2061737369676e20612072656044820152681c1b1858d95b595b9d60ba1b60648201526084016105f5565b50600080546001600160a01b0383166001600160a01b03199091161790556001919050565b600e546000906001600160a01b0316331461093a5760405162461bcd60e51b815260206004820152601d60248201527f596f7520617265206e6f74207468652066656520726563697069656e7400000060448201526064016105f5565b6001600160a01b03821660009081526011602052604090205461099b5760405162461bcd60e51b8152602060048201526019602482015278796f752068617665206e6f7468696e6720746f20636c61696d60381b60448201526064016105f5565b6001600160a01b038281166000818152601160205260408082208054929055600e54905163a9059cbb60e01b815293166004840152602483018190529163a9059cbb906044016106b5565b600254600554600090815260096020526040812060010154909190610a0b9042611884565b1015905090565b606060018054610a219061189b565b80601f0160208091040260200160405190810160405280929190818152602001828054610a4d9061189b565b8015610a9a5780601f10610a6f57610100808354040283529160200191610a9a565b820191906000526020600020905b815481529060010190602001808311610a7d57829003601f168201915b5050505050905090565b600b6020528260005260406000206020528160005260406000208181548110610acc57600080fd5b9060005260206000200160009250925050505481565b6000818152600b60209081526040808320338452825291829020805483518184028101840190945280845260609392830182828015610b4057602002820191906000526020600020905b815481526020019060010190808311610b2c575b50505050509050919050565b336000908152600c6020526040812054610ba85760405162461bcd60e51b815260206004820152601a60248201527f796f7520617265206e6f74206f77656420616e79206d6f6e657900000000000060448201526064016105f5565b336000908152600c602052604081208054908290556012549091506001600160a01b031663a9059cbb336040516001600160e01b031960e084901b1681526001600160a01b03909116600482015260248101849052604401602060405180830381600087803b158015610c1a57600080fd5b505af1158015610c2e573d6000803e3d6000fd5b505050506040513d601f19601f82011682018060405250810190610c5291906116da565b507f481007a75a4407f69a4ebcf25782e3537f6d76c13b46f71db08ae80c2b699e0733604080516001600160a01b039092168252602082018490520160405180910390a1600191505090565b6000818152600a6020908152604091829020805483518184028101840190945280845260609392830182828015610b4057602002820191906000526020600020905b81546001600160a01b03168152600190910190602001808311610ce05750505050509050919050565b600e546000906001600160a01b03163314610d665760405162461bcd60e51b815260206004820152601d60248201527f596f7520617265206e6f74207468652066656520726563697069656e7400000060448201526064016105f5565b600060105411610db45760405162461bcd60e51b8152602060048201526019602482015278796f752068617665206e6f7468696e6720746f20636c61696d60381b60448201526064016105f5565b601080546000918290556040519091339183156108fc0291849190818181858888f19350505050158015610dec573d6000803e3d6000fd5b50600191505090565b600354601254600091906001600160a01b03166370a08231336040516001600160e01b031960e084901b1681526001600160a01b03909116600482015260240160206040518083038186803b158015610e4d57600080fd5b505afa158015610e61573d6000803e3d6000fd5b505050506040513d601f19601f82011682018060405250810190610e859190611712565b1015610ed35760405162461bcd60e51b815260206004820152601a60248201527f6e6f7420656e6f75676820746f6b656e7320746f20656e74657200000000000060448201526064016105f5565b6000610edd610fc4565b9050610dec81611084565b600080610ef361116f565b905080610f535760068054906000610f0a836118d6565b90915550506040805160008152602081018390527fe0dbc9529120eb99dfdd738608a453baef8223964340a20ebbc2d79558ea1f9a910160405180910390a160009150506107ad565b6005546000908152600960205260409020600301819055610f726111e4565b50610f7b61122b565b506040805160018152602081018390527fe0dbc9529120eb99dfdd738608a453baef8223964340a20ebbc2d79558ea1f9a910160405180910390a160019150506107ad565b5090565b6012546003546000918291610fe2916001600160a01b03169061123f565b6012549091506001600160a01b03166323b872dd336003546040516001600160e01b031960e085901b1681526001600160a01b0390921660048301523060248301526044820152606401602060405180830381600087803b15801561104657600080fd5b505af115801561105a573d6000803e3d6000fd5b505050506040513d601f19601f8201168201806040525081019061107e91906116da565b50905090565b6007805460009182611095836118d6565b9190505550600354600860008282546110ae9190611839565b9091555050600554600090815260096020526040812060020180548492906110d7908490611839565b90915550600090506110e7611293565b600580546000908152600b602090815260408083203380855290835281842080546001810182559085528385200186905593548352600982529182902060020154825193845290830184905282820152519192507f1a68cfba6503f189182fd0e12b64a6c8b19d129ee1bb7aba124ab08d8a57e468919081900360600190a150600192915050565b60008061117a6113d1565b60055460065460408051602080820194909452808201929092526060808301859052815180840390910181526080909201905280519101209091506000906000818152600a6020526040902054909150156111d85791506107ad9050565b50600091506107ad9050565b6005546000908152600960205260408120600401805460ff1916600117905561120b611429565b61122557634e487b7160e01b600052600160045260246000fd5b50600190565b60006006819055600781905561083a611559565b60008061124b83611622565b6001600160a01b038516600090815260116020526040812080549293508392909190611278908490611839565b909155506000905061128a8285611884565b95945050505050565b60008061129e6113d1565b60055460065460408051602080820194909452808201929092526060808301859052815180840390910181526080909201905280519101209091506000906000818152600a60205260409020549091501561132a576000818152600a602090815260408220805460018101825590835291200180546001600160a01b0319163317905591506107ad9050565b60408051600180825281830190925260009160208083019080368337019050509050338160008151811061136e57634e487b7160e01b600052603260045260246000fd5b6001600160a01b039092166020928302919091018201526040805180820182528381528083018690526000858152600a84529190912081518051929391926113b9928492019061164d565b50602091909101516001909101555091506107ad9050565b60008061141060075460408051426020808301919091524382840152606080830194909452825180830390940184526080909101909152815191012090565b905060006004548261142291906118f1565b9250505090565b60055460009081526009602090815260408083206003810154600290910154818552600a90935290832054909190836114628284611851565b6000858152600a60209081526040808320805482518185028101850190935280835294955092939092918301828280156114c557602002820191906000526020600020905b81546001600160a01b031681526001909101906020018083116114a7575b5050505050905060005b815181101561154c5782600c60008484815181106114fd57634e487b7160e01b600052603260045260246000fd5b60200260200101516001600160a01b03166001600160a01b0316815260200190815260200160002060008282546115349190611839565b90915550819050611544816118d6565b9150506114cf565b5060019550505050505090565b600580546000918261156a836118d6565b91905055506040518060a001604052806115814290565b815260200142815260006020808301829052604080840183905260609384018390526005805484526009835292819020855181558583015160018201558582015160028201559385015160038501556080909401516004909301805460ff1916931515939093179092555491519182527fa35bd591310404f547e67d0f261a54d0a2a7606bf1695c5e9134f4259805eb7c910160405180910390a150600190565b600080670de0b6b3a7640000600d548461163c9190611865565b6116469190611851565b9392505050565b8280548282559060005260206000209081019282156116a2579160200282015b828111156116a257825182546001600160a01b0319166001600160a01b0390911617825560209092019160019091019061166d565b50610fc09291505b80821115610fc057600081556001016116aa565b6000602082840312156116cf578081fd5b813561164681611931565b6000602082840312156116eb578081fd5b81518015158114611646578182fd5b60006020828403121561170b578081fd5b5035919050565b600060208284031215611723578081fd5b5051919050565b60008060006060848603121561173e578182fd5b83359250602084013561175081611931565b929592945050506040919091013590565b6020808252825182820181905260009190848201906040850190845b818110156117a25783516001600160a01b03168352928401929184019160010161177d565b50909695505050505050565b6020808252825182820181905260009190848201906040850190845b818110156117a2578351835292840192918401916001016117ca565b6000602080835283518082850152825b81811015611812578581018301518582016040015282016117f6565b818111156118235783604083870101525b50601f01601f1916929092016040019392505050565b6000821982111561184c5761184c611905565b500190565b6000826118605761186061191b565b500490565b600081600019048311821515161561187f5761187f611905565b500290565b60008282101561189657611896611905565b500390565b6002810460018216806118af57607f821691505b602082108114156118d057634e487b7160e01b600052602260045260246000fd5b50919050565b60006000198214156118ea576118ea611905565b5060010190565b6000826119005761190061191b565b500690565b634e487b7160e01b600052601160045260246000fd5b634e487b7160e01b600052601260045260246000fd5b6001600160a01b038116811461194657600080fd5b5056fea26469706673582212208b6d86a5aa87dc8b31c8e0d7d2361324b51ce75b4b4648c27c5ab0ddf9fe852664736f6c63430008020033",
    "sourcePath": "/Users/unico/Documents/GitHub/roam/lottery/flats/TokenLottery_flat.sol",
    "compiler": {
        "name": "solc",
        "version": "0.8.2+commit.661d1103"
    },
    "functionHashes": {
        "TokenDebtToRecipient(address)": "50a58237",
        "changeSweeper(address)": "4cec4ed1",
        "currentDraw()": "97ba287c",
        "currentLotto()": "cd15cf61",
        "debtToUser(address)": "ebec9362",
        "draw()": "0eecae21",
        "enter()": "e97dcb62",
        "fantomDebtToRecipient()": "59acaa8c",
        "fee()": "ddca3f43",
        "frequency()": "ead50da3",
        "ftmDecimals()": "1b34d000",
        "getPaid()": "cf41d6f8",
        "inputToken()": "01b60ef2",
        "name()": "06fdde03",
        "odds()": "233de126",
        "price()": "a035b1fe",
        "readyToDraw()": "9ad572f5",
        "self()": "7104ddb2",
        "sweep(address)": "01681a62",
        "sweeper()": "9189a59e",
        "ticketCounter()": "8c4d59d0",
        "tickets(bytes32)": "df0dd0d5",
        "totalValuePlayed()": "9cd5b0d6",
        "treasury()": "61d027b3",
        "userTickets(uint256,address,uint256)": "b858bb65",
        "viewCurrentLottery()": "0f17ed02",
        "viewFantomCollected()": "1e6cccf9",
        "viewFrequency()": "9209f5b6",
        "viewLastDrawTime(uint256)": "5d269be0",
        "viewName()": "b5f10b38",
        "viewPrice()": "d7dcdcec",
        "viewStartTime(uint256)": "a4b73a6d",
        "viewTicketHolders(bytes32)": "e56d71bc",
        "viewTicketNumber(bytes32)": "86ae228f",
        "viewTokenAddress()": "093b13a7",
        "viewTokensCollected(address)": "7fb95ce2",
        "viewTotalPot(uint256)": "7b5015c8",
        "viewUserTicketList(uint256)": "b91c86f1",
        "viewWinChance()": "40c87c18",
        "viewWinningTicket(uint256)": "c6289f25",
        "viewWinnings()": "87687952",
        "withdrawFantom()": "e8665a0c",
        "withdrawToken(address)": "89476069"
    },
    "gasEstimates": {
        "creation": {
            "codeDepositCost": "1305400",
            "executionCost": "infinite",
            "totalCost": "infinite"
        },
        "external": {
            "TokenDebtToRecipient(address)": "1281",
            "changeSweeper(address)": "22128",
            "currentDraw()": "1107",
            "currentLotto()": "1062",
            "debtToUser(address)": "1367",
            "draw()": "infinite",
            "enter()": "infinite",
            "fantomDebtToRecipient()": "1085",
            "fee()": "1128",
            "frequency()": "1127",
            "ftmDecimals()": "263",
            "getPaid()": "infinite",
            "inputToken()": "1106",
            "name()": "infinite",
            "odds()": "1107",
            "price()": "1062",
            "readyToDraw()": "2900",
            "self()": "1082",
            "sweep(address)": "infinite",
            "sweeper()": "1105",
            "ticketCounter()": "1041",
            "tickets(bytes32)": "1188",
            "totalValuePlayed()": "1040",
            "treasury()": "1171",
            "userTickets(uint256,address,uint256)": "2365",
            "viewCurrentLottery()": "1027",
            "viewFantomCollected()": "1082",
            "viewFrequency()": "1082",
            "viewLastDrawTime(uint256)": "1256",
            "viewName()": "infinite",
            "viewPrice()": "1103",
            "viewStartTime(uint256)": "1227",
            "viewTicketHolders(bytes32)": "infinite",
            "viewTicketNumber(bytes32)": "1255",
            "viewTokenAddress()": "1160",
            "viewTokensCollected(address)": "1320",
            "viewTotalPot(uint256)": "1211",
            "viewUserTicketList(uint256)": "infinite",
            "viewWinChance()": "1126",
            "viewWinningTicket(uint256)": "1189",
            "viewWinnings()": "1193",
            "withdrawFantom()": "infinite",
            "withdrawToken(address)": "infinite"
        },
        "internal": {
            "beforeEachDraw()": "infinite",
            "beforeEachEnter()": "infinite",
            "beforeEachPayment()": "infinite"
        }
    }
}