{
    "contractName": "TokenLotteryHelper",
    "abi": [
        {
            "inputs": [],
            "stateMutability": "nonpayable",
            "type": "constructor"
        },
        {
            "anonymous": false,
            "inputs": [
                {
                    "indexed": false,
                    "internalType": "bool",
                    "name": "winnerSelected",
                    "type": "bool"
                },
                {
                    "indexed": false,
                    "internalType": "bytes32",
                    "name": "winningTicket",
                    "type": "bytes32"
                }
            ],
            "name": "newDraw",
            "type": "event"
        },
        {
            "anonymous": false,
            "inputs": [
                {
                    "indexed": false,
                    "internalType": "address",
                    "name": "entrant",
                    "type": "address"
                },
                {
                    "indexed": false,
                    "internalType": "bytes32",
                    "name": "ticketID",
                    "type": "bytes32"
                },
                {
                    "indexed": false,
                    "internalType": "uint256",
                    "name": "totalPot",
                    "type": "uint256"
                }
            ],
            "name": "newEntry",
            "type": "event"
        },
        {
            "anonymous": false,
            "inputs": [
                {
                    "indexed": false,
                    "internalType": "address",
                    "name": "user",
                    "type": "address"
                },
                {
                    "indexed": false,
                    "internalType": "uint256",
                    "name": "amount",
                    "type": "uint256"
                }
            ],
            "name": "newPayment",
            "type": "event"
        },
        {
            "anonymous": false,
            "inputs": [
                {
                    "indexed": false,
                    "internalType": "uint256",
                    "name": "lottoNumber",
                    "type": "uint256"
                }
            ],
            "name": "newRound",
            "type": "event"
        },
        {
            "inputs": [
                {
                    "internalType": "contract IERC20",
                    "name": "",
                    "type": "address"
                }
            ],
            "name": "TokenDebtToRecipient",
            "outputs": [
                {
                    "internalType": "uint256",
                    "name": "",
                    "type": "uint256"
                }
            ],
            "stateMutability": "view",
            "type": "function"
        },
        {
            "inputs": [
                {
                    "internalType": "address",
                    "name": "newSweeper",
                    "type": "address"
                }
            ],
            "name": "changeSweeper",
            "outputs": [
                {
                    "internalType": "bool",
                    "name": "",
                    "type": "bool"
                }
            ],
            "stateMutability": "nonpayable",
            "type": "function"
        },
        {
            "inputs": [],
            "name": "checkRandomness",
            "outputs": [
                {
                    "internalType": "uint256[5]",
                    "name": "",
                    "type": "uint256[5]"
                }
            ],
            "stateMutability": "view",
            "type": "function"
        },
        {
            "inputs": [],
            "name": "currentDraw",
            "outputs": [
                {
                    "internalType": "uint256",
                    "name": "",
                    "type": "uint256"
                }
            ],
            "stateMutability": "view",
            "type": "function"
        },
        {
            "inputs": [],
            "name": "currentLotto",
            "outputs": [
                {
                    "internalType": "uint256",
                    "name": "",
                    "type": "uint256"
                }
            ],
            "stateMutability": "view",
            "type": "function"
        },
        {
            "inputs": [
                {
                    "internalType": "address",
                    "name": "",
                    "type": "address"
                }
            ],
            "name": "debtToUser",
            "outputs": [
                {
                    "internalType": "uint256",
                    "name": "",
                    "type": "uint256"
                }
            ],
            "stateMutability": "view",
            "type": "function"
        },
        {
            "inputs": [],
            "name": "didSomeoneWin",
            "outputs": [
                {
                    "internalType": "bool",
                    "name": "",
                    "type": "bool"
                }
            ],
            "stateMutability": "view",
            "type": "function"
        },
        {
            "inputs": [],
            "name": "draw",
            "outputs": [
                {
                    "internalType": "bool",
                    "name": "",
                    "type": "bool"
                }
            ],
            "stateMutability": "nonpayable",
            "type": "function"
        },
        {
            "inputs": [],
            "name": "enter",
            "outputs": [
                {
                    "internalType": "bool",
                    "name": "",
                    "type": "bool"
                }
            ],
            "stateMutability": "nonpayable",
            "type": "function"
        },
        {
            "inputs": [],
            "name": "fantomDebtToRecipient",
            "outputs": [
                {
                    "internalType": "uint256",
                    "name": "",
                    "type": "uint256"
                }
            ],
            "stateMutability": "view",
            "type": "function"
        },
        {
            "inputs": [],
            "name": "fee",
            "outputs": [
                {
                    "internalType": "uint256",
                    "name": "",
                    "type": "uint256"
                }
            ],
            "stateMutability": "view",
            "type": "function"
        },
        {
            "inputs": [],
            "name": "frequency",
            "outputs": [
                {
                    "internalType": "uint256",
                    "name": "",
                    "type": "uint256"
                }
            ],
            "stateMutability": "view",
            "type": "function"
        },
        {
            "inputs": [],
            "name": "ftmDecimals",
            "outputs": [
                {
                    "internalType": "uint256",
                    "name": "",
                    "type": "uint256"
                }
            ],
            "stateMutability": "view",
            "type": "function"
        },
        {
            "inputs": [],
            "name": "getPaid",
            "outputs": [
                {
                    "internalType": "bool",
                    "name": "",
                    "type": "bool"
                }
            ],
            "stateMutability": "nonpayable",
            "type": "function"
        },
        {
            "inputs": [],
            "name": "getTokenAddress",
            "outputs": [
                {
                    "internalType": "contract IERC20",
                    "name": "",
                    "type": "address"
                }
            ],
            "stateMutability": "view",
            "type": "function"
        },
        {
            "inputs": [],
            "name": "inputToken",
            "outputs": [
                {
                    "internalType": "contract IERC20",
                    "name": "",
                    "type": "address"
                }
            ],
            "stateMutability": "view",
            "type": "function"
        },
        {
            "inputs": [],
            "name": "name",
            "outputs": [
                {
                    "internalType": "string",
                    "name": "",
                    "type": "string"
                }
            ],
            "stateMutability": "view",
            "type": "function"
        },
        {
            "inputs": [],
            "name": "odds",
            "outputs": [
                {
                    "internalType": "uint256",
                    "name": "",
                    "type": "uint256"
                }
            ],
            "stateMutability": "view",
            "type": "function"
        },
        {
            "inputs": [],
            "name": "price",
            "outputs": [
                {
                    "internalType": "uint256",
                    "name": "",
                    "type": "uint256"
                }
            ],
            "stateMutability": "view",
            "type": "function"
        },
        {
            "inputs": [],
            "name": "readyToDraw",
            "outputs": [
                {
                    "internalType": "bool",
                    "name": "",
                    "type": "bool"
                }
            ],
            "stateMutability": "view",
            "type": "function"
        },
        {
            "inputs": [],
            "name": "self",
            "outputs": [
                {
                    "internalType": "address",
                    "name": "",
                    "type": "address"
                }
            ],
            "stateMutability": "view",
            "type": "function"
        },
        {
            "inputs": [
                {
                    "internalType": "address",
                    "name": "tokenToSweep",
                    "type": "address"
                }
            ],
            "name": "sweep",
            "outputs": [
                {
                    "internalType": "bool",
                    "name": "",
                    "type": "bool"
                }
            ],
            "stateMutability": "nonpayable",
            "type": "function"
        },
        {
            "inputs": [],
            "name": "sweeper",
            "outputs": [
                {
                    "internalType": "address",
                    "name": "",
                    "type": "address"
                }
            ],
            "stateMutability": "view",
            "type": "function"
        },
        {
            "inputs": [],
            "name": "ticketCounter",
            "outputs": [
                {
                    "internalType": "uint256",
                    "name": "",
                    "type": "uint256"
                }
            ],
            "stateMutability": "view",
            "type": "function"
        },
        {
            "inputs": [
                {
                    "internalType": "bytes32",
                    "name": "",
                    "type": "bytes32"
                }
            ],
            "name": "tickets",
            "outputs": [
                {
                    "internalType": "uint256",
                    "name": "ticketNumber",
                    "type": "uint256"
                }
            ],
            "stateMutability": "view",
            "type": "function"
        },
        {
            "inputs": [],
            "name": "totalValuePlayed",
            "outputs": [
                {
                    "internalType": "uint256",
                    "name": "",
                    "type": "uint256"
                }
            ],
            "stateMutability": "view",
            "type": "function"
        },
        {
            "inputs": [],
            "name": "treasury",
            "outputs": [
                {
                    "internalType": "address",
                    "name": "",
                    "type": "address"
                }
            ],
            "stateMutability": "view",
            "type": "function"
        },
        {
            "inputs": [
                {
                    "internalType": "contract IERC20",
                    "name": "_inputToken",
                    "type": "address"
                }
            ],
            "name": "updateTokenAddress",
            "outputs": [
                {
                    "internalType": "bool",
                    "name": "",
                    "type": "bool"
                }
            ],
            "stateMutability": "nonpayable",
            "type": "function"
        },
        {
            "inputs": [
                {
                    "internalType": "uint256",
                    "name": "",
                    "type": "uint256"
                },
                {
                    "internalType": "address",
                    "name": "",
                    "type": "address"
                },
                {
                    "internalType": "uint256",
                    "name": "",
                    "type": "uint256"
                }
            ],
            "name": "userTickets",
            "outputs": [
                {
                    "internalType": "bytes32",
                    "name": "",
                    "type": "bytes32"
                }
            ],
            "stateMutability": "view",
            "type": "function"
        },
        {
            "inputs": [],
            "name": "viewCurrentDraw",
            "outputs": [
                {
                    "internalType": "uint256",
                    "name": "",
                    "type": "uint256"
                }
            ],
            "stateMutability": "view",
            "type": "function"
        },
        {
            "inputs": [],
            "name": "viewCurrentLottery",
            "outputs": [
                {
                    "internalType": "uint256",
                    "name": "",
                    "type": "uint256"
                }
            ],
            "stateMutability": "view",
            "type": "function"
        },
        {
            "inputs": [],
            "name": "viewFantomCollected",
            "outputs": [
                {
                    "internalType": "uint256",
                    "name": "",
                    "type": "uint256"
                }
            ],
            "stateMutability": "view",
            "type": "function"
        },
        {
            "inputs": [],
            "name": "viewFinished",
            "outputs": [
                {
                    "internalType": "bool",
                    "name": "",
                    "type": "bool"
                }
            ],
            "stateMutability": "view",
            "type": "function"
        },
        {
            "inputs": [],
            "name": "viewFrequency",
            "outputs": [
                {
                    "internalType": "uint256",
                    "name": "",
                    "type": "uint256"
                }
            ],
            "stateMutability": "view",
            "type": "function"
        },
        {
            "inputs": [],
            "name": "viewLast",
            "outputs": [
                {
                    "internalType": "uint256",
                    "name": "",
                    "type": "uint256"
                }
            ],
            "stateMutability": "view",
            "type": "function"
        },
        {
            "inputs": [
                {
                    "internalType": "uint256",
                    "name": "lottoNumber",
                    "type": "uint256"
                }
            ],
            "name": "viewLastDrawTime",
            "outputs": [
                {
                    "internalType": "uint256",
                    "name": "",
                    "type": "uint256"
                }
            ],
            "stateMutability": "view",
            "type": "function"
        },
        {
            "inputs": [],
            "name": "viewLastPot",
            "outputs": [
                {
                    "internalType": "uint256",
                    "name": "",
                    "type": "uint256"
                }
            ],
            "stateMutability": "view",
            "type": "function"
        },
        {
            "inputs": [],
            "name": "viewLottoNumber",
            "outputs": [
                {
                    "internalType": "uint256",
                    "name": "",
                    "type": "uint256"
                }
            ],
            "stateMutability": "view",
            "type": "function"
        },
        {
            "inputs": [],
            "name": "viewName",
            "outputs": [
                {
                    "internalType": "string",
                    "name": "",
                    "type": "string"
                }
            ],
            "stateMutability": "view",
            "type": "function"
        },
        {
            "inputs": [],
            "name": "viewPot",
            "outputs": [
                {
                    "internalType": "uint256",
                    "name": "",
                    "type": "uint256"
                }
            ],
            "stateMutability": "view",
            "type": "function"
        },
        {
            "inputs": [],
            "name": "viewPrice",
            "outputs": [
                {
                    "internalType": "uint256",
                    "name": "",
                    "type": "uint256"
                }
            ],
            "stateMutability": "view",
            "type": "function"
        },
        {
            "inputs": [],
            "name": "viewStart",
            "outputs": [
                {
                    "internalType": "uint256",
                    "name": "",
                    "type": "uint256"
                }
            ],
            "stateMutability": "view",
            "type": "function"
        },
        {
            "inputs": [
                {
                    "internalType": "uint256",
                    "name": "lottoNumber",
                    "type": "uint256"
                }
            ],
            "name": "viewStartTime",
            "outputs": [
                {
                    "internalType": "uint256",
                    "name": "",
                    "type": "uint256"
                }
            ],
            "stateMutability": "view",
            "type": "function"
        },
        {
            "inputs": [],
            "name": "viewTicketCount",
            "outputs": [
                {
                    "internalType": "uint256",
                    "name": "",
                    "type": "uint256"
                }
            ],
            "stateMutability": "view",
            "type": "function"
        },
        {
            "inputs": [
                {
                    "internalType": "bytes32",
                    "name": "ticketID",
                    "type": "bytes32"
                }
            ],
            "name": "viewTicketHolders",
            "outputs": [
                {
                    "internalType": "address[]",
                    "name": "",
                    "type": "address[]"
                }
            ],
            "stateMutability": "view",
            "type": "function"
        },
        {
            "inputs": [
                {
                    "internalType": "bytes32",
                    "name": "ticketID",
                    "type": "bytes32"
                }
            ],
            "name": "viewTicketNumber",
            "outputs": [
                {
                    "internalType": "uint256",
                    "name": "",
                    "type": "uint256"
                }
            ],
            "stateMutability": "view",
            "type": "function"
        },
        {
            "inputs": [],
            "name": "viewTokenAddress",
            "outputs": [
                {
                    "internalType": "address",
                    "name": "",
                    "type": "address"
                }
            ],
            "stateMutability": "view",
            "type": "function"
        },
        {
            "inputs": [
                {
                    "internalType": "contract IERC20",
                    "name": "_token",
                    "type": "address"
                }
            ],
            "name": "viewTokensCollected",
            "outputs": [
                {
                    "internalType": "uint256",
                    "name": "",
                    "type": "uint256"
                }
            ],
            "stateMutability": "view",
            "type": "function"
        },
        {
            "inputs": [
                {
                    "internalType": "uint256",
                    "name": "lottoNumber",
                    "type": "uint256"
                }
            ],
            "name": "viewTotalPot",
            "outputs": [
                {
                    "internalType": "uint256",
                    "name": "",
                    "type": "uint256"
                }
            ],
            "stateMutability": "view",
            "type": "function"
        },
        {
            "inputs": [
                {
                    "internalType": "uint256",
                    "name": "lottoNumber",
                    "type": "uint256"
                }
            ],
            "name": "viewUserTicketList",
            "outputs": [
                {
                    "internalType": "bytes32[]",
                    "name": "",
                    "type": "bytes32[]"
                }
            ],
            "stateMutability": "view",
            "type": "function"
        },
        {
            "inputs": [],
            "name": "viewWinChance",
            "outputs": [
                {
                    "internalType": "uint256",
                    "name": "",
                    "type": "uint256"
                }
            ],
            "stateMutability": "view",
            "type": "function"
        },
        {
            "inputs": [],
            "name": "viewWinner",
            "outputs": [
                {
                    "internalType": "bytes32",
                    "name": "",
                    "type": "bytes32"
                }
            ],
            "stateMutability": "view",
            "type": "function"
        },
        {
            "inputs": [
                {
                    "internalType": "uint256",
                    "name": "lottoNumber",
                    "type": "uint256"
                }
            ],
            "name": "viewWinningTicket",
            "outputs": [
                {
                    "internalType": "bytes32",
                    "name": "",
                    "type": "bytes32"
                }
            ],
            "stateMutability": "view",
            "type": "function"
        },
        {
            "inputs": [],
            "name": "viewWinnings",
            "outputs": [
                {
                    "internalType": "uint256",
                    "name": "",
                    "type": "uint256"
                }
            ],
            "stateMutability": "view",
            "type": "function"
        },
        {
            "inputs": [
                {
                    "internalType": "address",
                    "name": "addr",
                    "type": "address"
                }
            ],
            "name": "viewWinningsByAddress",
            "outputs": [
                {
                    "internalType": "uint256",
                    "name": "",
                    "type": "uint256"
                }
            ],
            "stateMutability": "view",
            "type": "function"
        },
        {
            "inputs": [],
            "name": "withdrawFantom",
            "outputs": [
                {
                    "internalType": "bool",
                    "name": "",
                    "type": "bool"
                }
            ],
            "stateMutability": "nonpayable",
            "type": "function"
        },
        {
            "inputs": [
                {
                    "internalType": "contract IERC20",
                    "name": "ERC20Address",
                    "type": "address"
                }
            ],
            "name": "withdrawToken",
            "outputs": [
                {
                    "internalType": "bool",
                    "name": "",
                    "type": "bool"
                }
            ],
            "stateMutability": "nonpayable",
            "type": "function"
        }
    ],
    "bytecode": "60806040526000600581905560068190556007819055600855600f80546001600160a01b03199081163017909155601380549091167319ff17645bd4930745e632284422555466675e441790553480156200005957600080fd5b5060408051808201909152600e8082526d546f6b656e73204c6f747465727960901b60208301908152601354600080546001600160a01b0319163317815592670de0b6b3a764000092600a928592666a94d74f430000926001600160a01b0390921691620000cb916001919062000200565b50600286905560038590556004849055600d829055600e80546001600160a01b038084166001600160a01b03199283161790925560128054928616929091169190911790556200011a62000128565b50505050505050506200030b565b60058054600091826200013b83620002e3565b91905055506040518060a001604052806200015b620001fc60201b60201c565b815260200142815260006020808301829052604080840183905260609384018390526005805484526009835292819020855181558583015160018201558582015160028201559385015160038501556080909401516004909301805460ff1916931515939093179092555491519182527fa35bd591310404f547e67d0f261a54d0a2a7606bf1695c5e9134f4259805eb7c910160405180910390a150600190565b4290565b8280546200020e90620002a6565b90600052602060002090601f0160209004810192826200023257600085556200027d565b82601f106200024d57805160ff19168380011785556200027d565b828001600101855582156200027d579182015b828111156200027d57825182559160200191906001019062000260565b506200028b9291506200028f565b5090565b5b808211156200028b576000815560010162000290565b600281046001821680620002bb57607f821691505b60208210811415620002dd57634e487b7160e01b600052602260045260246000fd5b50919050565b60006000198214156200030457634e487b7160e01b81526011600452602481fd5b5060010190565b611ce3806200031b6000396000f3fe608060405234801561001057600080fd5b50600436106103835760003560e01c80639189a59e116101de578063c6289f251161010f578063ddca3f43116100ad578063e97dcb621161007c578063e97dcb621461076b578063ead50da314610773578063ebec93621461077c578063f5268d371461079c57610383565b8063ddca3f4314610717578063df0dd0d514610720578063e56d71bc14610743578063e8665a0c1461076357610383565b8063cf41d6f8116100e9578063cf41d6f8146106e8578063d6c90a88146106f0578063d7dcdcec146106f8578063dd325f251461070057610383565b8063c6289f2514610693578063c932a7f7146106b6578063cd15cf61146106df57610383565b8063a4b73a6d1161017c578063b858bb6511610156578063b858bb6514610658578063b85d4be614610400578063b91c86f11461066b578063be1f2cfd1461068b57610383565b8063a4b73a6d14610628578063af38c81014610648578063b5f10b381461065057610383565b80639ad572f5116101b85780639ad572f5146105f45780639cd5b0d6146105fc578063a035b1fe14610605578063a1dd2ac11461060e57610383565b80639189a59e146105d05780639209f5b6146105e357806397ba287c146105eb57610383565b806350a58237116102b85780637b5015c81161025657806386ae228f1161023057806386ae228f1461057c578063876879521461059f57806389476069146105b45780638c4d59d0146105c757610383565b80637b5015c81461051b5780637fb95ce21461053e578063841fd8fd1461056757610383565b806361d027b31161029257806361d027b3146104bb5780636691461a146104ce5780636da7b0d1146105005780637104ddb21461050857610383565b806350a582371461046f57806359acaa8c1461048f5780635d269be01461049857610383565b80631b34d00011610325578063392e2403116102ff578063392e24031461043257806340c87c181461043a57806345ea375f146104425780634cec4ed11461045c57610383565b80631b34d000146104125780631e6cccf914610421578063233de1261461042957610383565b8063093b13a711610361578063093b13a7146103f05780630eecae21146103f85780630f17ed021461040057806310fe9ae8146103f057610383565b806301681a621461038857806301b60ef2146103b057806306fdde03146103db575b600080fd5b61039b6103963660046119f1565b6107a4565b60405190151581526020015b60405180910390f35b6012546103c3906001600160a01b031681565b6040516001600160a01b0390911681526020016103a7565b6103e3610917565b6040516103a79190611b4a565b6103c36109a5565b61039b6109b5565b6005545b6040519081526020016103a7565b610404670de0b6b3a764000081565b601054610404565b61040460045481565b610404610a47565b600454610404565b600554600090815260096020526040902060020154610404565b61039b61046a3660046119f1565b610a73565b61040461047d3660046119f1565b60116020526000908152604090205481565b61040460105481565b6104046104a6366004611a2d565b60009081526009602052604090206001015490565b600e546103c3906001600160a01b031681565b61039b6104dc3660046119f1565b601280546001600160a01b0383166001600160a01b03199091161790556001919050565b600754610404565b600f546103c3906001600160a01b031681565b610404610529366004611a2d565b60009081526009602052604090206002015490565b61040461054c3660046119f1565b6001600160a01b031660009081526011602052604090205490565b61056f610b0e565b6040516103a79190611b19565b61040461058a366004611a2d565b6000908152600a602052604090206001015490565b336000908152600c6020526040902054610404565b61039b6105c23660046119f1565b610b5e565b61040460075481565b6000546103c3906001600160a01b031681565b600254610404565b61040460065481565b61039b610c67565b61040460085481565b61040460035481565b600554600090815260096020526040902060010154610404565b610404610636366004611a2d565b60009081526009602052604090205490565b61039b610c93565b6103e3610cc5565b610404610666366004611a5d565b610d57565b61067e610679366004611a2d565b610d95565b6040516103a79190611ae1565b61039b610dff565b6104046106a1366004611a2d565b60009081526009602052604090206003015490565b6104046106c43660046119f1565b6001600160a01b03166000908152600c602052604090205490565b61040460055481565b61039b610e30565b610404610f82565b600354610404565b600554600090815260096020526040902054610404565b610404600d5481565b61040461072e366004611a2d565b600a6020526000908152604090206001015481565b610756610751366004611a2d565b610fae565b6040516103a79190611a94565b61039b611019565b61039b611105565b61040460025481565b61040461078a3660046119f1565b600c6020526000908152604090205481565b600654610404565b600080546001600160a01b0316336001600160a01b0316146108035760405162461bcd60e51b815260206004820152601360248201527236bab9ba103132903a34329039bbb2b2b832b960691b60448201526064015b60405180910390fd5b6040516370a0823160e01b81523060048201526000906001600160a01b038416906370a082319060240160206040518083038186803b15801561084557600080fd5b505afa158015610859573d6000803e3d6000fd5b505050506040513d601f19601f8201168201806040525081019061087d9190611a45565b9050801561090e5760005460405163a9059cbb60e01b81526001600160a01b039182166004820152602481018390529084169063a9059cbb906044015b602060405180830381600087803b1580156108d457600080fd5b505af11580156108e8573d6000803e3d6000fd5b505050506040513d601f19601f8201168201806040525081019061090c9190611a0d565b505b50600192915050565b6001805461092490611bff565b80601f016020809104026020016040519081016040528092919081815260200182805461095090611bff565b801561099d5780601f106109725761010080835404028352916020019161099d565b820191906000526020600020905b81548152906001019060200180831161098057829003601f168201915b505050505081565b6012546001600160a01b03165b90565b60006109bf610c67565b610a1f5760405162461bcd60e51b815260206004820152602b60248201527f6e6f7420656e6f7567682074696d652068617320656c61707365642073696e6360448201526a65206c617374206472617760a81b60648201526084016107fa565b600554600090815260096020526040902042600190910155610a3f6111f8565b506001905090565b6000600960006001600554610a5c9190611be8565b815260200190815260200160002060030154905090565b600080546001600160a01b0316336001600160a01b031614610ae95760405162461bcd60e51b815260206004820152602960248201527f4f6e6c792074686520737765657065722063616e2061737369676e20612072656044820152681c1b1858d95b595b9d60ba1b60648201526084016107fa565b50600080546001600160a01b0383166001600160a01b03199091161790556001919050565b610b16611962565b6040518060a00160405280610b296112d4565b81526020016005610b386112d4565b610b429190611c55565b8152602001438152602001428152602001600754815250905090565b600e546000906001600160a01b03163314610bbb5760405162461bcd60e51b815260206004820152601d60248201527f596f7520617265206e6f74207468652066656520726563697069656e7400000060448201526064016107fa565b6001600160a01b038216600090815260116020526040902054610c1c5760405162461bcd60e51b8152602060048201526019602482015278796f752068617665206e6f7468696e6720746f20636c61696d60381b60448201526064016107fa565b6001600160a01b038281166000818152601160205260408082208054929055600e54905163a9059cbb60e01b815293166004840152602483018190529163a9059cbb906044016108ba565b600254600554600090815260096020526040812060010154909190610c8c9042611be8565b1015905090565b60008060001b600960006001600554610cac9190611be8565b8152602001908152602001600020600301541415905090565b606060018054610cd490611bff565b80601f0160208091040260200160405190810160405280929190818152602001828054610d0090611bff565b8015610d4d5780601f10610d2257610100808354040283529160200191610d4d565b820191906000526020600020905b815481529060010190602001808311610d3057829003601f168201915b5050505050905090565b600b6020528260005260406000206020528160005260406000208181548110610d7f57600080fd5b9060005260206000200160009250925050505481565b6000818152600b60209081526040808320338452825291829020805483518184028101840190945280845260609392830182828015610df357602002820191906000526020600020905b815481526020019060010190808311610ddf575b50505050509050919050565b6000600960006001600554610e149190611be8565b815260208101919091526040016000206004015460ff16905090565b336000908152600c6020526040812054610e8c5760405162461bcd60e51b815260206004820152601a60248201527f796f7520617265206e6f74206f77656420616e79206d6f6e657900000000000060448201526064016107fa565b336000908152600c602052604081208054908290556012549091506001600160a01b031663a9059cbb336040516001600160e01b031960e084901b1681526001600160a01b03909116600482015260248101849052604401602060405180830381600087803b158015610efe57600080fd5b505af1158015610f12573d6000803e3d6000fd5b505050506040513d601f19601f82011682018060405250810190610f369190611a0d565b507f481007a75a4407f69a4ebcf25782e3537f6d76c13b46f71db08ae80c2b699e0733604080516001600160a01b039092168252602082018490520160405180910390a1600191505090565b6000600960006001600554610f979190611be8565b815260200190815260200160002060020154905090565b6000818152600a6020908152604091829020805483518184028101840190945280845260609392830182828015610df357602002820191906000526020600020905b81546001600160a01b03168152600190910190602001808311610ff05750505050509050919050565b600e546000906001600160a01b031633146110765760405162461bcd60e51b815260206004820152601d60248201527f596f7520617265206e6f74207468652066656520726563697069656e7400000060448201526064016107fa565b6000601054116110c45760405162461bcd60e51b8152602060048201526019602482015278796f752068617665206e6f7468696e6720746f20636c61696d60381b60448201526064016107fa565b601080546000918290556040519091339183156108fc0291849190818181858888f193505050501580156110fc573d6000803e3d6000fd5b50600191505090565b600354601254600091906001600160a01b03166370a08231336040516001600160e01b031960e084901b1681526001600160a01b03909116600482015260240160206040518083038186803b15801561115d57600080fd5b505afa158015611171573d6000803e3d6000fd5b505050506040513d601f19601f820116820180604052508101906111959190611a45565b10156111e35760405162461bcd60e51b815260206004820152601a60248201527f6e6f7420656e6f75676820746f6b656e7320746f20656e74657200000000000060448201526064016107fa565b60006111ed61130d565b90506110fc816113cd565b6000806112036114b8565b905080611263576006805490600061121a83611c3a565b90915550506040805160008152602081018390527fe0dbc9529120eb99dfdd738608a453baef8223964340a20ebbc2d79558ea1f9a910160405180910390a160009150506109b2565b600554600090815260096020526040902060030181905561128261152d565b5061128b611574565b506040805160018152602081018390527fe0dbc9529120eb99dfdd738608a453baef8223964340a20ebbc2d79558ea1f9a910160405180910390a160019150506109b2565b5090565b60075460408051426020808301919091524382840152606080830194909452825180830390940184526080909101909152815191012090565b601254600354600091829161132b916001600160a01b031690611588565b6012549091506001600160a01b03166323b872dd336003546040516001600160e01b031960e085901b1681526001600160a01b0390921660048301523060248301526044820152606401602060405180830381600087803b15801561138f57600080fd5b505af11580156113a3573d6000803e3d6000fd5b505050506040513d601f19601f820116820180604052508101906113c79190611a0d565b50905090565b60078054600091826113de83611c3a565b9190505550600354600860008282546113f79190611b9d565b909155505060055460009081526009602052604081206002018054849290611420908490611b9d565b90915550600090506114306115dc565b600580546000908152600b602090815260408083203380855290835281842080546001810182559085528385200186905593548352600982529182902060020154825193845290830184905282820152519192507f1a68cfba6503f189182fd0e12b64a6c8b19d129ee1bb7aba124ab08d8a57e468919081900360600190a150600192915050565b6000806114c361171a565b60055460065460408051602080820194909452808201929092526060808301859052815180840390910181526080909201905280519101209091506000906000818152600a6020526040902054909150156115215791506109b29050565b50600091506109b29050565b6005546000908152600960205260408120600401805460ff1916600117905561155461173e565b61156e57634e487b7160e01b600052600160045260246000fd5b50600190565b600060068190556007819055610a3f61186e565b60008061159483611937565b6001600160a01b0385166000908152601160205260408120805492935083929091906115c1908490611b9d565b90915550600090506115d38285611be8565b95945050505050565b6000806115e761171a565b60055460065460408051602080820194909452808201929092526060808301859052815180840390910181526080909201905280519101209091506000906000818152600a602052604090205490915015611673576000818152600a602090815260408220805460018101825590835291200180546001600160a01b0319163317905591506109b29050565b6040805160018082528183019092526000916020808301908036833701905050905033816000815181106116b757634e487b7160e01b600052603260045260246000fd5b6001600160a01b039092166020928302919091018201526040805180820182528381528083018690526000858152600a84529190912081518051929391926117029284920190611980565b50602091909101516001909101555091506109b29050565b6000806117256112d4565b90506000600454826117379190611c55565b9250505090565b60055460009081526009602090815260408083206003810154600290910154818552600a90935290832054909190836117778284611bb5565b6000858152600a60209081526040808320805482518185028101850190935280835294955092939092918301828280156117da57602002820191906000526020600020905b81546001600160a01b031681526001909101906020018083116117bc575b5050505050905060005b81518110156118615782600c600084848151811061181257634e487b7160e01b600052603260045260246000fd5b60200260200101516001600160a01b03166001600160a01b0316815260200190815260200160002060008282546118499190611b9d565b9091555081905061185981611c3a565b9150506117e4565b5060019550505050505090565b600580546000918261187f83611c3a565b91905055506040518060a001604052806118964290565b815260200142815260006020808301829052604080840183905260609384018390526005805484526009835292819020855181558583015160018201558582015160028201559385015160038501556080909401516004909301805460ff1916931515939093179092555491519182527fa35bd591310404f547e67d0f261a54d0a2a7606bf1695c5e9134f4259805eb7c910160405180910390a150600190565b600080670de0b6b3a7640000600d54846119519190611bc9565b61195b9190611bb5565b9392505050565b6040518060a001604052806005906020820280368337509192915050565b8280548282559060005260206000209081019282156119d5579160200282015b828111156119d557825182546001600160a01b0319166001600160a01b039091161782556020909201916001909101906119a0565b506112d09291505b808211156112d057600081556001016119dd565b600060208284031215611a02578081fd5b813561195b81611c95565b600060208284031215611a1e578081fd5b8151801515811461195b578182fd5b600060208284031215611a3e578081fd5b5035919050565b600060208284031215611a56578081fd5b5051919050565b600080600060608486031215611a71578182fd5b833592506020840135611a8381611c95565b929592945050506040919091013590565b6020808252825182820181905260009190848201906040850190845b81811015611ad55783516001600160a01b031683529284019291840191600101611ab0565b50909695505050505050565b6020808252825182820181905260009190848201906040850190845b81811015611ad557835183529284019291840191600101611afd565b60a08101818360005b6005811015611b41578151835260209283019290910190600101611b22565b50505092915050565b6000602080835283518082850152825b81811015611b7657858101830151858201604001528201611b5a565b81811115611b875783604083870101525b50601f01601f1916929092016040019392505050565b60008219821115611bb057611bb0611c69565b500190565b600082611bc457611bc4611c7f565b500490565b6000816000190483118215151615611be357611be3611c69565b500290565b600082821015611bfa57611bfa611c69565b500390565b600281046001821680611c1357607f821691505b60208210811415611c3457634e487b7160e01b600052602260045260246000fd5b50919050565b6000600019821415611c4e57611c4e611c69565b5060010190565b600082611c6457611c64611c7f565b500690565b634e487b7160e01b600052601160045260246000fd5b634e487b7160e01b600052601260045260246000fd5b6001600160a01b0381168114611caa57600080fd5b5056fea26469706673582212204bee1fe270b41b83dbd2e65c7b00cded01b1802f2b9ede76682cc09f4a5fa6c364736f6c63430008020033",
    "sourcePath": "/Users/unico/Documents/GitHub/roam/lottery/contracts/TestHelpers/TokenLotteryHelper.sol",
    "compiler": {
        "name": "solc",
        "version": "0.8.2+commit.661d1103"
    },
    "functionHashes": {
        "TokenDebtToRecipient(address)": "50a58237",
        "changeSweeper(address)": "4cec4ed1",
        "checkRandomness()": "841fd8fd",
        "currentDraw()": "97ba287c",
        "currentLotto()": "cd15cf61",
        "debtToUser(address)": "ebec9362",
        "didSomeoneWin()": "af38c810",
        "draw()": "0eecae21",
        "enter()": "e97dcb62",
        "fantomDebtToRecipient()": "59acaa8c",
        "fee()": "ddca3f43",
        "frequency()": "ead50da3",
        "ftmDecimals()": "1b34d000",
        "getPaid()": "cf41d6f8",
        "getTokenAddress()": "10fe9ae8",
        "inputToken()": "01b60ef2",
        "name()": "06fdde03",
        "odds()": "233de126",
        "price()": "a035b1fe",
        "readyToDraw()": "9ad572f5",
        "self()": "7104ddb2",
        "sweep(address)": "01681a62",
        "sweeper()": "9189a59e",
        "ticketCounter()": "8c4d59d0",
        "tickets(bytes32)": "df0dd0d5",
        "totalValuePlayed()": "9cd5b0d6",
        "treasury()": "61d027b3",
        "updateTokenAddress(address)": "6691461a",
        "userTickets(uint256,address,uint256)": "b858bb65",
        "viewCurrentDraw()": "f5268d37",
        "viewCurrentLottery()": "0f17ed02",
        "viewFantomCollected()": "1e6cccf9",
        "viewFinished()": "be1f2cfd",
        "viewFrequency()": "9209f5b6",
        "viewLast()": "a1dd2ac1",
        "viewLastDrawTime(uint256)": "5d269be0",
        "viewLastPot()": "d6c90a88",
        "viewLottoNumber()": "b85d4be6",
        "viewName()": "b5f10b38",
        "viewPot()": "45ea375f",
        "viewPrice()": "d7dcdcec",
        "viewStart()": "dd325f25",
        "viewStartTime(uint256)": "a4b73a6d",
        "viewTicketCount()": "6da7b0d1",
        "viewTicketHolders(bytes32)": "e56d71bc",
        "viewTicketNumber(bytes32)": "86ae228f",
        "viewTokenAddress()": "093b13a7",
        "viewTokensCollected(address)": "7fb95ce2",
        "viewTotalPot(uint256)": "7b5015c8",
        "viewUserTicketList(uint256)": "b91c86f1",
        "viewWinChance()": "40c87c18",
        "viewWinner()": "392e2403",
        "viewWinningTicket(uint256)": "c6289f25",
        "viewWinnings()": "87687952",
        "viewWinningsByAddress(address)": "c932a7f7",
        "withdrawFantom()": "e8665a0c",
        "withdrawToken(address)": "89476069"
    },
    "gasEstimates": {
        "creation": {
            "codeDepositCost": "1479000",
            "executionCost": "infinite",
            "totalCost": "infinite"
        },
        "external": {
            "TokenDebtToRecipient(address)": "1282",
            "changeSweeper(address)": "22216",
            "checkRandomness()": "infinite",
            "currentDraw()": "1108",
            "currentLotto()": "1107",
            "debtToUser(address)": "1323",
            "didSomeoneWin()": "2069",
            "draw()": "infinite",
            "enter()": "infinite",
            "fantomDebtToRecipient()": "1086",
            "fee()": "1062",
            "frequency()": "1083",
            "ftmDecimals()": "264",
            "getPaid()": "infinite",
            "getTokenAddress()": "1182",
            "inputToken()": "1129",
            "name()": "infinite",
            "odds()": "1108",
            "price()": "1107",
            "readyToDraw()": "2834",
            "self()": "1171",
            "sweep(address)": "infinite",
            "sweeper()": "1106",
            "ticketCounter()": "1128",
            "tickets(bytes32)": "1233",
            "totalValuePlayed()": "1085",
            "treasury()": "1105",
            "updateTokenAddress(address)": "21297",
            "userTickets(uint256,address,uint256)": "2299",
            "viewCurrentDraw()": "1124",
            "viewCurrentLottery()": "1094",
            "viewFantomCollected()": "1083",
            "viewFinished()": "2109",
            "viewFrequency()": "1083",
            "viewLast()": "2001",
            "viewLastDrawTime(uint256)": "1257",
            "viewLastPot()": "2058",
            "viewLottoNumber()": "1070",
            "viewName()": "infinite",
            "viewPot()": "1979",
            "viewPrice()": "1103",
            "viewStart()": "1994",
            "viewStartTime(uint256)": "1206",
            "viewTicketCount()": "1104",
            "viewTicketHolders(bytes32)": "infinite",
            "viewTicketNumber(bytes32)": "1211",
            "viewTokenAddress()": "1116",
            "viewTokensCollected(address)": "1321",
            "viewTotalPot(uint256)": "1212",
            "viewUserTicketList(uint256)": "infinite",
            "viewWinChance()": "1082",
            "viewWinner()": "2037",
            "viewWinningTicket(uint256)": "1212",
            "viewWinnings()": "1149",
            "viewWinningsByAddress(address)": "1321",
            "withdrawFantom()": "infinite",
            "withdrawToken(address)": "infinite"
        }
    }
}